:020000040002F8
:10700000005100209DBC02004554030089BC0200D1
:1070100089BC020089BC020089BC0200000000009B
:1070200000000000000000000000000009BE020097
:1070300089BC020000000000A5BD020089BC02005E
:1070400005C0020005C0020005C0020005C0020024
:1070500005C0020005C0020005C0020005C0020014
:1070600005C0020005C0020005C0020005C0020004
:1070700005C0020005C0020005C0020005C00200F4
:1070800005C0020005C0020005C0020005C00200E4
:1070900005C0020005C0020005C0020005C00200D4
:1070A00005C0020005C0020005C0020005C00200C4
:1070B00005C0020005C0020005C0020005C00200B4
:1070C00005C0020005C0020005C0020005C00200A4
:1070D00005C0020005C0020005C0020005C0020094
:1070E00005C0020005C0020005C0020005C0020084
:1070F00005C0020005C0020005C0020005C0020074
:1071000053B94AB9002908BF00281CBF4FF0FF310E
:107110004FF0FF3000F00CB8ADF1080C6DE904CE73
:1071200000F010F8DDF804E0DDE9022304B0704758
:10713000704700BF034613F8012B002AFBD1181A31
:10714000013870472DE9F04786468C460846089E70
:10715000154674461946002B40F0C2808542B2FAAB
:1071600082F245D94AB1C2F1200300FA02FC2EFA9C
:1071700003F3954043EA0C0C94404FEA154EA8B235
:10718000BCFBFEF8230C0EFB18CC08FB00F943EA0D
:107190000C43994528D9EB1808F1FF3704D29945DB
:1071A00002D9A8F102072B44A3EB0903A4B2B3FB55
:1071B000FEFC0EFB1C330CFB00F044EA0344A0422F
:1071C00014D92C190CF1FF3304D2A04202D9ACF12E
:1071D00002032C44241A43EA07401EB1D440002382
:1071E00034607360BDE8F0874746DDE76346F1E74A
:1071F00092BB431B01214FEA154EAFB2B3FBFEFC1D
:10720000200C0EFB1C330CFB07F840EA03439845A7
:1072100062D9EB180CF1FF3004D2984502D9ACF1D9
:1072200002002B44A3EB0803A4B2B3FBFEFC0EFB4D
:107230001C330CFB07F744EA0344A7424ED92C1930
:107240000CF1FF3304D2A74202D9ACF102032C4463
:10725000E41B43EA0040C0E7C2F1200320FA03F137
:10726000954090402EFA03F303434FEA154EAFB218
:10727000B1FBFEFC0EFB1C10190C0CFB07F841EADD
:107280000041884504FA02F422D969180CF1FF3054
:1072900004D2884502D9ACF102002944A1EB0801CF
:1072A0009BB2B1FBFEFC0EFB1C110CFB07F743EA83
:1072B00001439F420ED9EB180CF1FF3104D29F42DB
:1072C00002D9ACF102012B44DB1B41EA004192E7F9
:1072D0006046E3E76146F7E76046A3E76346B7E742
:1072E000834206D916B9002108467BE7C6E900E0CB
:1072F000F9E7B3FA83F78FB9834201D3724508D80F
:10730000BEEB020460EB030301209C461EB9002182
:1073100068E73846FAE7C6E9004CF8E7C7F1200C01
:10732000BB4022FA0CF41C432EFA0CF120FA0CF3A9
:10733000B84001434FEA14490EFA07F5B3FBF9F8D8
:107340001FFA84FE09FB18300B0C08FB0EFA43EA07
:1073500000439A4502FA07F240D9E31808F1FF30DA
:1073600004D29A4502D9A8F102002344A3EB0A03F0
:1073700089B2B3FBF9F809FB183308FB0EFE41EAAA
:1073800003418E452CD9611808F1FF3304D28E4594
:1073900002D9A8F10203214443EA0040A0FB02986D
:1073A000A1EB0E014145CE46434602D306D14D45E1
:1073B00004D2B9EB020E68EB04030138002EA6D00C
:1073C000B5EB0E0261EB030101FA0CFC22FA07F3A4
:1073D0004CEA0303F940C6E9003198E74046C5E7A7
:1073E0004346D9E72DE9F04F8DB002AF01234D4A56
:1073F0004D480093032100230DF052FE00F05EFA89
:107400004A4D28460EF079FC80BB494A4648022185
:107410000DF033FE00F008F9034620B1454A42481A
:1074200001210DF033FE00F073F9034620B1424A0A
:107430003D4801210DF02AFE00F0CCF900F0B2F930
:10744000DFF8E8903D4EDFF8F8806B681B685B0161
:107450002BD43C493C4A3D4840F2B6630DF089FBD1
:107460003B480DF086FB40F2B66111E06B68A968FD
:107470001B682A6958010ED43249334A33484FF405
:107480007F730DF076FB32480DF073FB4FF47F7184
:107490002D480DF065FB136843F0806313600B68A3
:1074A0002C4A1A2128469847B4E7AB684FF0806110
:1074B0005B694846984740F6CD4000210BF06AFCD6
:1074C0003468142301343460B4FBF3F203FB124438
:1074D000002CBAD107F1080000F0A8F9C7F804D0D1
:1074E0008EB0D7E9051097F809B097F80AA097F879
:1074F0000CE0D7F810C0FB6902AAC2E90B130923FC
:10750000C2E9058BC2E907AEC2E909C042F8103FE3
:107510000548234644F6C00102F0C2F9D7F804D06A
:1075200093E700BFB067030008650300B86103007C
:10753000CC67030086680300B8680300801200204F
:10754000CD68030019680300E8670300576803006B
:107550007468030001000A0070B52F4D2F4E90B0E3
:107560000446A3685B6D002B4AD1A3681B6D002BFA
:107570004CD1A3685B6CFBB9A3689B6A0BBBA36887
:107580005B6B1BB1204698470028EAD0244801468F
:10759000C38831F80A2F9B1A9BB2402B6A4628BF3A
:1075A00040230DF077FC0246C8B9A3681B6B002B83
:1075B000D7D020469847D4E7204698470028DED009
:1075C000DAE74022694620469847021ED7DD694621
:1075D000284601F077FD30460AF016F8CFE7A36899
:1075E00000995B6A4BB1204698470E4920EAE07249
:1075F000A1F10A000DF084FCB3E76FF05700F4E747
:10760000204698470028B0D110B070BD204698475A
:107610000028AED1F8E700BF700500207C070020ED
:10762000840500208E05002010B519480EF065FB7A
:1076300040B9184A184801210DF01FFD6FF01204DF
:10764000204610BD002003F049F9044648B110F16E
:10765000780F06D0114A034601210F480DF016FDA0
:10766000EEE70B4CA3682BB19B6D1BB10C490022BC
:1076700020469847A3689B6B0BB105489847094A79
:1076800005484FF4805303210DF000FD0024D7E797
:10769000D86103001A690300E06403003369030042
:1076A000597502004A6903002DE9F04105460E466E
:1076B00090460A4601460B481F4601F035FD044638
:1076C00060B9094842463B460AF01CF830B93246D8
:1076D00029460448BDE8F04101F026BD2046BDE83A
:1076E000F08100BF700500207C0700200B78012B83
:1076F00005D9062B06D1044B02221A7070470348A5
:1077000009F082BF704700BFC4270020AC070020EB
:1077100010B5144C20460EF0F0FA40B9124A134846
:1077200001210DF0AAFC6FF01204204610BDA368E1
:107730001B6863B120460E4900229847044648B1B1
:107740000C4A2346012109480DF0A0FCEDE76FF03B
:107750005704F5E7084B01221A70084B084A032129
:10776000F1E700BFF86103007A69030038650300A0
:10777000ED7602008A690300C427002040420F0012
:10778000A8690300014B1878704700BFC427002088
:10779000034B10B504460FCB84E80F0010BD00BFAB
:1077A0007865030010B5074C074920460AF09AFB9C
:1077B00020460BF051FB054A0548BDE81040032167
:1077C0000DF05BBCA0080020C9690300D569030067
:1077D000D064030080B50F4B0F4A19780F4B00AFF0
:1077E0008AB0012908BF13466A460D49136240F268
:1077F000024351619384D0200A4BDF21C2E9060184
:1078000042F8103F084800234FF4335102F048F883
:10781000BD4680BDA8060020FB690300006A030086
:10782000046A030005000001F064030030B585B070
:1078300004466846FFF7ACFF1E220021A01C0EF094
:10784000C5FB164B01251B7863702570FFF79AFF67
:107850000023A371009BA360019BE360029B236153
:10786000039B63612071E57100F01AF8A06100F0DC
:1078700079F8207700F07CF860770CF034FF10B1D5
:1078800063792B43637100F011F818B1637943F009
:10789000020363710023A37005B030BDA806002069
:1078A000014B1868704700BF84120020024B186813
:1078B000C0F30010704700BF84120020F8B500AF7D
:1078C0001F4C20460DF0E9FE08B1002323600DF0A7
:1078D0000DFF1C4B1C4A1D68246893E8030082E8D6
:1078E00003001A4885420DBFD988FF21C3E9000172
:1078F000013105BFD980002191805971DD8814497B
:10790000FFF7D4FF134B8CB0002818BF0B4610793B
:1079100051796A46104EC2E9074340F2024393850B
:107920000E4BC2E90565C2E9090142F8103F0C4857
:1079300000234FF4735101F0B3FFBD46F8BD00BF03
:10794000841200208055002088120020FE5A0E0D5F
:10795000456A0300C48A0300516A0300070000015E
:1079600030650300014B1879704700BF8812002072
:10797000014B5879704700BF88120020F8B50F46B8
:1079800000293BD0066830460CF0E7FE0122014694
:10799000044630460CF0A9FEC3070DD4184A194915
:1079A0001948AF230DF0E5F8394618480DF0E1F815
:1079B000AF2113480DF0D4F8214630460CF0ABFE51
:1079C00025182946002230460CF08FFE2D1AAC42B5
:1079D0000BD00B4A0E490C48B7230DF0CAF83946B4
:1079E0000C480DF0C6F8B721E3E7214630460CF00D
:1079F00098FE2146BDE8F8400CF0D4BFF8BD00BFAA
:107A0000966A0300B96A030057680300CA6A030054
:107A1000026B0300286B0300B2F5802F2DE9F041C3
:107A200010D2042A28D84349434A44484FF40773E4
:107A30000DF09FF842480DF09CF84FF407713E4856
:107A40000DF08EF80823D21ACC1D114424F007043F
:107A500021F00701091B17294FEAD1060ED8394931
:107A6000354A364840F225230DF083F834480DF0AE
:107A700080F840F22521E2E70423E4E700270460D0
:107A80003146A660E76030460CF07AFE0121421DC7
:107A9000804630460CF06BFE9200D51DED08284460
:107AA000B0423AD8B8F1FF3FA2F110023946B8BF50
:107AB0003A4604F110000EF089FA2A46394620466B
:107AC0000CF047FE3B463A46394620460CF018FE7D
:107AD000A6EB05082046394601220CF022FE42465C
:107AE00029460CF036FE2B463A46294620460CF035
:107AF00007FE314620460CF02CFE43463A463146FE
:107B000020460CF0FDFD3146204601220CF009FE16
:107B10002946BDE8F0410CF003BF0B49064A07486F
:107B200040F23A230DF025F805480DF022F840F216
:107B30003A2184E7646B0300966A030057680300E8
:107B4000856B03009E6B0300C76B03002DE9F04FAC
:107B500091B00546009302F004030193C2F3C203FF
:107B6000013304938307DDF8689002920E4640F0DB
:107B7000FC81041D30B1072909D86FF01B0011B03A
:107B8000BDE8F08F01F007063444C6F10806009BFB
:107B90004FF000084FF0040B591ECDF80C804746FB
:107BA00043464FF0FF32DA460DB10098206004984A
:107BB000002800F3DF809B48DDF800C0844503D334
:107BC00099488445C0F0D680DDF808C0A4EB050EC6
:107BD0001CF0020F4FEA9E0000F0E7804FF0000C0F
:107BE000D1E07A2862D84B280FD847285ED82928B8
:107BF0002DD8252859D059D820287DD0A0F1230987
:107C0000D9F1000343EB090376E04C382E284DD818
:107C1000DFE800F0724C4C4C4C4C4C4C4C4C4C4CF7
:107C20004E4C4C4C4C4C4C4C4C5C4C4E4E5C5C5C4E
:107C3000724E6F4C724C184E184C4C817E4E4C4C10
:107C40004E4C7E00002000234FF0040B3CE02A380D
:107C50004FF0010EC0B20EFA00F04FF6DA7E10EAD5
:107C60000E0F49D110F0625E30D110F0010343D005
:107C70007046013C5C44B4FBFBF40BFB04F4002DA8
:107C80005ED0AAEB050EA644B6453FF676AF0028B7
:107C900068D1BAF1040F43D1E14659F8040B2060D2
:107CA0000434CC464FF0040A26E0013A002323E0D6
:107CB00011F8013C6C2B30D111F8023C00206C2BE8
:107CC0000346C1D14FF0080BDA46D2E70CF10709A1
:107CD00029F0070C0734FCE802AB24F0070435B1A7
:107CE00005982044B0423FF648AFC4E900AB0834E1
:107CF00000234FF0080BDA4611F8010F002800F0BE
:107D0000BC80002B7FF46DAF2528F5D10132012313
:107D10004FF0040BEFE7184695E700200346A8E76D
:107D2000BAF1080F40F09B800CF1070929F0070C0D
:107D3000FCE8029AC4E9009A08344FF0080ADBE72D
:107D400080B9BAF1040F02D10CF10409A8E7BAF125
:107D5000080F40F084800CF1070929F0070909F1A8
:107D6000080CE9E70498E1460138049059F8040B3F
:107D7000009019E70298800748D5A4EB050E4FEA5A
:107D80009E004FF0010CBEF5007F1DD32749284A05
:107D900028484FF41F730CF0ECFE27480CF0E9FE66
:107DA0004FF41F7122480CF0DBFE0F2F0ED8002D70
:107DB00046D007F1400CEC440CF8200C0CF8102CC9
:107DC00003980130039020E00F2F0CD91749184A6F
:107DD000184840F281230CF0CCFE18480CF0C9FE84
:107DE00040F28121DEE7BDB107F1400EEE44C0B2A2
:107DF0000EF8200C0EF8102CBCF1000FE0D060F053
:107E00007F000EF8200C08F101080137C5F10800C9
:107E10000434CC4605906FE7BCF1000F10D001365A
:107E2000F3E700BFE8600300A0920300DA910300CB
:107E3000F26B030057680300206C0300416C0300E1
:107E4000019802360028E0D100980592CDE906316C
:107E5000FFF770F9DDE90631059A0644D5E7444A93
:107E60004449454840F2C6230CF083FE514643483E
:107E70000CF07FFE40F2C62194E7631BB3F5806FE0
:107E80000CD33C493A4A3C4840F2D2230CF071FEF4
:107E90003B480CF06EFE40F2D22183E71DB9A6F1FB
:107EA0000804E0186BE6019A28609B082B709DF887
:107EB0000C30C2B1EB7085F80280B8F1000F05D02C
:107EC00008A80022C5F1010C97420ED1C5F10103AB
:107ED0000DF120094FF0000A02930DF1300B5745C8
:107EE00012D1601B4BE66B70E5E710F8013B1906F9
:107EF00008D50CEB040EB64503F07F033FF63DAE0C
:107F000004F8013B0132DFE7B8F1000F03D099F923
:107F10000020002A17DB019BD3B11AF80B2004F8CC
:107F2000012B0022029B18191044B0423FF625AEE7
:107F300099F8000004F8010B0099039220460EF016
:107F400037F8039A14440AF1010A09F10109C6E756
:107F500099F8002055F822300093019B45F8223013
:107F60000098FFF7E7F8421CDCE76FF00D0006E62B
:107F7000F26B0300DA910300576803005B6C0300A7
:107F8000706C03002DE9F04F97B000AF8946D7F829
:107F900080B0FA623B62044658B9A849A84AA94889
:107FA00040F299330CF0E5FD40F29931A4480CF011
:107FB000D7FDCBF3C00390F802A07B6141B94578AF
:107FC00000780AEB800020444D4517D8A0EB040947
:107FD000E378FB61BAF1000F02D01BF0010F16D15C
:107FE000FB6953BBFB6A1BB13A6A49462046984776
:107FF0004D4628465C37BD46BDE8F08F461C3046EE
:10800000FFF798F80130304409F10109DCE72378E3
:1080100062687A62FA6A9900B96104EB8301002A06
:1080200040F001814D460E4601EB0A094FF0000871
:108030004E454CD101EB0A0610E01BF0020FD1D0E7
:1080400023789A00BA6162687A62FA6A04EB830163
:10805000002A77D14D4601EB0A0690461BF0050F2A
:108060000CBF02230123FB62FB6906EB430A0BF002
:108070000203BB625645BCD016F8021B16F8013C41
:1080800054F82390704B994502D3704B994536D3E1
:108090007B69002B40D0786A0CF02CFD00283BD087
:1080A000E9468AB06A466A4B53617B6AC2E9063187
:1080B0004FF400731384674B42F8103F6648002367
:1080C0004FF4125101F0ECFB023DCD46D2E716F819
:1080D000013BF96254F82300FFF72CF8D7F88430FD
:1080E000F96A01304BB1D7F8883098453EBFD7F8D0
:1080F000843023F8180008F10108054498E77B69EB
:1081000023B1786A0CF0F6FC0028C9D11BF0010FEE
:1081100005D1FB6AED1AADE7BB6A002BAAD0484631
:10812000FFF708F8D7F8843053B1D7F8883098456E
:108130003FBFD7F88420431C22F8183008F101080B
:10814000054497E7BAF1000F73D01BF0040673D013
:10815000D046002607F1480052463B61B9620DF057
:1081600027FFB96A3B6901EB0A02BA62FA69F96949
:108170005200FA60BA6A02EB41023A610BF0020265
:10818000BA60BA6A39698A4268D162787A621BF049
:10819000020F32440CBF4FEA580100211BF0010FBF
:1081A000D2B240F0E4801BF0040F14BF4046002020
:1081B0007B616270A070E1703A6AB969FB6A20461F
:1081C0009847051EFFF615AF7B6923707B6A6370C5
:1081D000FB69E37041463A6AFB6A84F802A007F142
:1081E00048009847B0F10008C0F2F580BB693A6AD0
:1081F000A9EB0A01C91AFB68C91AD7E90A0398470B
:108200000028C0F2EA80A84408EB00054FF0000BFC
:1082100007F1380AB345C0F0AC8000213A6AFB6A26
:1082200008469847E5E656464FF0000807F1380043
:1082300092E75646D04696E7B04694E7876C03002F
:10824000F26B030057680300E8600300A09203008C
:10825000A26C030004000001D8640300BA6A12F89B
:10826000021BBA6212F8015C5D4A54F82500904284
:1082700002D35C4A904218D37A693AB1786A7B603B
:108280000CF038FC7B6800287FF47BAFBA68002ACA
:108290004CD00F2E40D95449544A554840F24D43D2
:1082A0000CF067FC40F24D4180E67A693AB1786A99
:1082B0007B600CF01FFC7B6800287FF462AF1BF032
:1082C000010F0BD00F2E27D94749484A484840F2A2
:1082D00043430CF04EFC40F2434167E61BF0040FB1
:1082E0003FF44FAFB8F10F0F09D942493F4A404818
:1082F00040F246430CF03DFC40F2464156E608F1A0
:10830000280207F1300008F1010102EB000808F82B
:10831000105C5FFA81F834E706F1280207F13000BB
:10832000711C161806F8205CCEB22AE7B8F10F0FC0
:1083300009D930492D4A2E484FF48A630CF019FCB4
:108340004FF48A6132E608F1280207F1300C08F197
:108350000100944407F1580252FA80F008F1020833
:108360000CF8101C5FFA88F800F8105C09E7002090
:108370001EE71BF80A3087F8373054F82390D7F8F7
:1083800084302BB3D7F888309B4521D2D7F884307E
:1083900033F81B803A6AFB6A012107F137009847DE
:1083A00000281ADB0544B8F1000F06D14846FEF755
:1083B000C1FE00F101081FFA88F83A6AFB6A4146DB
:1083C00048469847002808DB05440BF1010B21E7DC
:1083D0004FF00008DEE745460BE6054609E600BF1C
:1083E000E8600300A0920300456D0300F26B0300F8
:1083F00057680300646D0300014B1860704700BFAD
:108400009805002080B505460E46174698460AF0A6
:108410007BFD03460DF05EFEDFF81890044649F838
:108420000030424630463946A84754F8090003F068
:10843000A3FC00BF0800000038B50D46044620220A
:1084400000210DF0C3FDEB68E361AB68A3612B680D
:1084500023626B6863620022A2622A6923B1591EFB
:10846000194208BF42F0010222610122002104F1F9
:108470002C000DF0BFFC48B105490648064A2F23E1
:108480000CF077FB04482F210CF06AFB38BD00BFCD
:10849000BB6D030057680300956D03002DE9F04F95
:1084A00089B0CDE90123436A00278B420446884600
:1084B00005970797BA4654D300F11406EFF31185D8
:1084C000202383F31288BFF36F8F3046A9460AF04A
:1084D0008DFF58B94D4A4E494E4888230CF049FB50
:1084E00031464D480CF045FB882163E030460AF0E8
:1084F000A1FF079A2AB1394620460CF022FC00233E
:10850000079306A920460CF041FB06994145834696
:1085100030D32268236A13F8221021F0030103F8F4
:10852000221003EB820A2168424620460CF052FBDF
:10853000E3682060984218D04FF0000B30460AF0F4
:1085400063FF50B389F31188BFF36F8F059929B189
:10855000A2690AB12046904700230593BBF1000FA2
:10856000ACD1504609B0BDE8F08F236943F0080351
:108570002361E1E718B120460CF046FBDEE7DDE9B8
:108580000132134339D003910DF062FC0399A0BB73
:108590009DBB30460AF038FF78B91C4A1F491D4878
:1085A00040F231130CF0E5FA31461D480CF0E1FAC7
:1085B00040F2311115480CF0D3FA85F31188BFF35E
:1085C0006F8FDDE9012304F12C0009F09BF883464D
:1085D000EFF31189202383F31288BFF36F8F3046A6
:1085E0000AF004FF00283FF475AF3046BBFA8BFB5E
:1085F0000AF020FF4FEA5B1BA0E707AB05AA204665
:1086000027680CF01EFB834698E700BFC46D03008B
:10861000F16D030057680300066E03001C6E030033
:10862000336E03002DE9F0410446C36908460E4647
:10863000984704F114050746EFF31188202383F3CC
:108640001288BFF36F8F28460AF0D0FE68B91B4A24
:108650001B491C4888230CF08CFA29461A480CF058
:1086600088FA882115480CF07BFA28460AF0E2FEC9
:10867000337843F00103337061683A4620460CF0CA
:10868000A9FA606020460CF077FB28460AF0BCFE91
:1086900068B90A4A0D490B4840F231130CF069FAE7
:1086A00029460B480CF065FA40F23111DAE788F3FD
:1086B0001188BFF36F8FBDE8F08100BFC46D030068
:1086C000F16D030057680300066E03001C6E030083
:1086D000336E03002DE9F843044600F11407EFF36D
:1086E0001188202383F31288BFF36F8F38460AF076
:1086F0007DFE054668B9354A3549364888230CF071
:1087000038FA394634480CF034FA88212F480CF0F6
:1087100027FA38460AF08EFE2369A26813F0080F84
:1087200002D163689A4200D9636A9B1A002B3FD03A
:10873000216A11F8223013F0030001EB82093AD0CC
:10874000022803D151F82260B60805D1D8071FD4FA
:10875000E369484698470646A168324620460CF031
:1087600039FA3146A06020460CF042FA38460AF049
:108770004BFE10BB154A1949164840F231130CF054
:10878000F8F9394616480CF0F4F940F23111BDE71A
:1087900043F0020301F822304846E369A568984790
:1087A0002946024620460CF015FA0025A060DDE7B8
:1087B0001D46A946DAE70546FBE788F31188BFF3B3
:1087C0006F8F002D8BD14846BDE8F883C46D030040
:1087D000F16D030057680300066E03001C6E030072
:1087E000336E03002DE9F0410446C36908460D4687
:1087F000984704F114060746EFF31188202383F30A
:108800001288BFF36F8F30460AF0F0FD68B9284A2E
:108810002849294888230CF0ACF9314627480CF048
:10882000A8F9882122480CF09BF930460AF002FE94
:108830002B786FF300032B7023699B0705D5E26843
:10884000236A03EB82039D4222D12B786FF341030D
:108850002B70D4E90231994204D13A4620460CF0FB
:10886000B9F9A060394620460CF0C2F930460AF04A
:10887000CBFD90B90E4A12490F4840F231130CF06B
:1088800078F931460F480CF074F940F23111C9E71C
:108890002B6867F39F032B60E8E788F31188BFF329
:1088A0006F8F04F12C00BDE8F04108F0ADBE00BFB1
:1088B000C46D0300F16D030057680300066E0300EA
:1088C0001C6E0300336E030070B5044600F11405FE
:1088D000EFF31186202383F31288BFF36F8F2846AE
:1088E0000AF084FD68B91B4A1B491C4888230CF018
:1088F00040F929461A480CF03CF9882115480CF03B
:108900002FF928460AF096FD2369A06813F0080F96
:1089100002D16368984213D9646A241A28460AF07F
:1089200073FD78B90B4A0F490C4840F231130CF033
:1089300020F929460C480CF01CF940F23111DDE712
:108940001C1AEBE786F31188BFF36F8F201E18BF48
:10895000012070BDC46D0300F16D03005768030072
:10896000066E03001C6E0300336E030008B5044658
:10897000EFF31183202383F31288BFF36F8F06F088
:1089800035FE204603F0C4FD02480CF0DCF80CF084
:108990006FFDFCE7486E03002DE9F84F04460846DA
:1089A000A38B1907154612D4022803F0070165D1DD
:1089B00020460CF009FA88B10138042800F237810A
:1089C000DFE810F05C0035018200D40004010128CA
:1089D0000CBF43F0100143F02001A1831434204662
:1089E0000AF012FD002840F09D819A499A4A9B485E
:1089F00040F231130CF0BDF82146B1E003F007025C
:108A0000501F01281ED80020062A2768C4E900004C
:108A100014D13A4603E0E08B0130E0831268002A6B
:108A2000F9D123F0070343F00202A28320460CF0A1
:108A3000CBF990B342F02002A2832EE023F007038B
:108A40009AB2F2E7042A33D123F007039AB2A28341
:108A500020460CF0B9F910B142F02002A283A38B9A
:108A600003F00709894540F0EC80A18BCA0640F16C
:108A7000508121F01003A38301F00701D4F818807E
:108A8000A38BB8F1000FB9DA0022276823F007039F
:108A9000C4E9002243F00103A383A38B03F0070979
:108AA000894540F0CF80002FDFD00026B24644E059
:108AB0006B496C4A694840F21B130CF05AF840F2BB
:108AC0001B1168480CF04CF849B16749654A634886
:108AD0004FF4AB730CF04DF84FF4AB71F1E7236832
:108AE0004BB962495F4A5D4840F257130CF041F8B8
:108AF00040F25711E5E723691E684EB95C49594AAF
:108B000056484FF4AD730CF034F84FF4AD71D8E71C
:108B1000A38B23F0070343F006039BB2A3830F4606
:108B200088464FF00609A268002A40F08D80002F89
:108B300040F08D80002E98D0BA4643F0080304F12F
:108B4000140BA38358460AF05FFC002840F09A807B
:108B50004049414A414840F231130CF00AF8594665
:108B600044480CF006F840F23111ADE0022909D07A
:108B700041493C4A394840F25D130BF0FAFF40F29C
:108B80005D119EE7E78B4FB13C49364A33484FF4BD
:108B9000AF730BF0EEFF4FF4AF7192E723695E689D
:108BA0004EB933492F4A2D4840F261130BF0E1FFD3
:108BB00040F2611185E7A38B23F0070343F0040320
:108BC0009BB2A383B8464FF00409ACE7012909D052
:108BD0002B49244A21484FF4B2730BF0CAFF4FF4DB
:108BE000B2716EE723684BB920491E4A1B4840F218
:108BF00065130BF0BEFF40F2651162E723699E68C2
:108C00004EB91B49174A15484FF4B4730BF0B1FF26
:108C10004FF4B47155E7A38B23F0070343F005032A
:108C20009BB20027A383B8464FF005097BE70C49A8
:108C30000C4A0A4840F26B130BF09BFF40F26B1199
:108C40003FE7002700266EE74FF0010A75E79246DE
:108C500073E700BF1C6E0300C46D03005768030078
:108C6000DA910300716E0300966E0300A26E03009A
:108C7000C56E0300336E0300DC6E0300F26E03006A
:108C8000016F030085F31188BFF36F8FBAF1000FF6
:108C90001CD177BB16B126492046B047EFF31185AA
:108CA000202383F31288BFF36F8F58460AF09EFB90
:108CB00038BB204A2049214888230BF05AFF5946E7
:108CC0001F480BF056FF88211A48FBE6A1680029CF
:108CD000DFD00D680029DCD0D1F804A043464A4615
:108CE0002046D0471DB12B6829461D46F2E72B468A
:108CF000FAE7394643464A4620463F680CF090F86A
:108D0000C7E758460AF096FBA38B23F00803A3831A
:108D1000ABE68B067FF562AE21F02003A38301F062
:108D2000070145E685F31188BFF36F8FBDE8F88F23
:108D3000458D0200C46D0300F16D03005768030008
:108D4000066E0300F8B504460D4600F11406EFF375
:108D50001187202383F31288BFF36F8F30460AF008
:108D600045FB68B90C4A0D490D4888230BF001FFFB
:108D70000C4831460BF0FDFE074888210BF0F0FE51
:108D800030460AF057FBA5613A4620460121BDE86E
:108D9000F840FFF701BE00BFC46D0300F16D030092
:108DA00057680300066E03002DE9F04704460F469E
:108DB0000CF026F8051E68DB04F11409EFF3118AA4
:108DC000202383F31288BFF36F8F48460AF00EFB0F
:108DD000804660B9384A3949394888230BF0C9FEC2
:108DE000494638480BF0C5FE8821334842E04846E2
:108DF0000AF020FBE38BA68B4FF6FF72934206F03E
:108E0000070645D0022E15D10133E3833546484687
:108E10000AF0FAFA002841D1274A2B49284840F2A3
:108E200031130BF0A6FE494628480BF0A2FE40F293
:108E30003111DAE7062E13D8DFE806F0092D1212F9
:108E4000090409006FF085054FF00008DFE70023F3
:108E50003B60636883B9C4E9007786B13546F3E7C0
:108E60001B4917481B4A4FF4E4730BF082FE194864
:108E70004FF4E4710BF074FE1F606760EDE752463B
:108E800002212046FFF788FD35462846BDE8F087D9
:108E90006FF00A05D8E76FF00405D5E78AF311886B
:108EA000BFF36F8FB8F1000FEFD000233246394681
:108EB00020460BF0B5FFE8E7C46D0300F16D030039
:108EC00057680300066E03001C6E0300336E030038
:108ED000016F0300716E0300F8B5054600F114063A
:108EE000EFF31187202383F31288BFF36F8F30468F
:108EF0000AF07CFA60B9264A2649274888230BF0F5
:108F000038FE314625480BF034FE882120482BE0FE
:108F100030460AF08FFAAC8B04F00704022C17D00D
:108F2000012C0CBF6FF004046FF0850430460AF08A
:108F30006BFA38BB164A1A49174840F231130BF046
:108F400018FE314617480BF014FE40F23111DDE7F0
:108F5000EB8B5BB914491048144A40F2EF130BF045
:108F600008FE124840F2EF110BF0FAFD013B9BB2F4
:108F7000EB83002BDAD13A4621462846FFF70CFD59
:108F80002046F8BD87F31188BFF36F8FF8E700BF65
:108F9000C46D0300F16D030057680300066E030003
:108FA0001C6E0300336E0300176F0300716E030025
:108FB0002DE9F0410F460546002850D000294ED03B
:108FC00000F11406EFF31188202383F31288BFF316
:108FD0006F8F30460AF00AFA60B9224A22492348C4
:108FE00088230BF0C6FD314621480BF0C2FD8821D5
:108FF0001C4817E030460AF01DFA39462846AC8B6B
:109000000BF0C7FE80B104F00704231F022B0DD91B
:1090100018491648184A40F22D230BF0AAFD1648AD
:1090200040F22D210BF09CFD6FF0770430460AF0E2
:10903000EBF968B90B4A11490C4840F231130BF0B7
:1090400098FD31460E480BF094FD40F23111CFE708
:1090500088F31188BFF36F8F2046BDE8F0816FF071
:109060001504F9E7C46D0300F16D030057680300B0
:10907000066E0300256F0300716E03001C6E030073
:10908000336E030008B54268816002F00302032AD0
:10909000034602D02AB1002000E0006800225A6096
:1090A00008BD05490548064A45230BF062FD044802
:1090B00045210BF055FD00BFDA910300576803000E
:1090C0009C6F03002DE9F34106460F4615464FF00D
:1090D00000082A4601A930460BF0F4FE044640B1D0
:1090E0000246394601980CF063FF2D1BA04427442B
:1090F000EFD14246311D30460BF002FF48B107491F
:109100000748084A48230BF034FD064848210BF075
:1091100027FD404602B0BDE8F08100BFBB6D0300F3
:1091200057680300C26F03002DE9F34107460E465E
:1091300015464FF000082A4601A938460BF0D1FE2B
:10914000044648B12EB10246019930460CF030FF7A
:1091500026442D1BA044EED1424607F10A013846B1
:109160000BF0CEFE48B107490748084A63230BF0CD
:1091700000FD064863210BF0F3FC404602B0BDE859
:10918000F08100BFBB6D030057680300C26F03008E
:1091900030B51049104889B000220CF0D0FE0F4DB8
:1091A0000F4900220023CDE9062300240E23CDE938
:1091B0000334CDE901440B4B00944FF40062284680
:1091C00008F022FF0849284608F08CFE204609B026
:1091D00030BD00BF35930200E80D0020400900209B
:1091E000802E002089960200ED6F03002DE9F047E4
:1091F000DFF85880044607464FF0010914B9384695
:10920000BDE8F08794FAA4F5B5FA85F509FA05F3F7
:109210002E0108EB05156FEA030A24EA03042B7BF1
:10922000002BEBD058F806301B694BB9464404229A
:1092300073682846196807EA0A070BF0AFFEDDE7F6
:10924000284698470028D9D1F0E700BF50650300B1
:109250002DE9F047DFF8BC902F4CA9EB04038F2BCE
:1092600080460F460BD92D492D4A2E484FF4A7733F
:109270000BF07FFC4FF4A77129480BF071FC2A48D2
:109280000BF06CFE064678B300252846BDE8F08753
:10929000237B83B12368DB680BB120469847636862
:1092A00083F806A023681B69B3B9636804221968B0
:1092B00020460BF073FE013610344C4518D91B497B
:1092C000174A18484FF4AD730BF053FC18480BF0D5
:1092D00050FC4FF4AD71CFE7204698470028E4D00A
:1092E0000AFA06F31D43E6E705464FF0010AE4E7F4
:1092F000CED3B8F1000FC8D0002DC5D02846FFF757
:1093000075FF0546002FF7D000214FF4A47009F037
:1093100041FDF1E760650300506503002270030022
:10932000F56F030057680300A41200205270030079
:1093300073700300014808F067B900BF9C07002064
:10934000014B53F8200070479C65030008B50346A5
:1093500008462BB1044A136000F0BEFD002008BD92
:109360006FF01500FBE700BF9C05002010B5044C12
:10937000237813B9034808F047F90123237010BD7F
:10938000C52700209C07002010B504460B480BF0B1
:10939000E5FD5CB1BFF35B8F094B53E8001F01395A
:1093A00043E80012002AF8D1BFF35B8F05480CF0A8
:1093B000D2FD0548BDE8104008F026B99C120020F7
:1093C000A0120020E80D00209C0700200020064B82
:1093D000BFF35B8F014653E8000F43E80012002AF9
:1093E000F9D1BFF35B8F70479C12002070B5FFF777
:1093F000EDFF104C104E0546B44219D90F49104AE2
:10940000104840F20E230BF0B4FB0F480BF0B1FBF9
:109410000B4840F20E210BF0A3FB63685B792BB184
:1094200023685B6813B12946204698471034E3E768
:10943000F3D370BD506503006065030052700300F4
:10944000F56F0300576803007370030010B5044CF8
:1094500004492046FEF7F0FF034B1C6010BD00BF1F
:10946000B80600208865030090120020154A1648AF
:10947000002310B51370154A1360154A4FF40041CC
:109480001360FFF763FFFFF7E1FF124B1249184625
:109490008B4215D91149124A124840F229130BF098
:1094A00068FB11480BF065FB0D4840F229110BF0E9
:1094B00057FB1A1A5C681211013222711033E7E768
:1094C000F7D310BDC6270020594F03009C1200207F
:1094D000A012002050650300606503005270030075
:1094E000F56F030057680300737003000146002204
:1094F00001480023FEF7D2BFB80600200148FFF75D
:10950000E9B800BFB8060020024B01461868FFF713
:1095100069B900BF901200200148FFF7D5B900BF1C
:10952000B806002070B5314B187800285DD0FFF7E1
:10953000E5FF0546002844D12D4B2E4C1B68002B1F
:1095400019DD0CF0FAFC4FF47A72A0FB020302FB67
:109550000131C30BD4E9002043EA41439B1A4FEA8F
:10956000D13140F2E93261EB0001934271F1000127
:1095700001D3FFF73BFFD4E9003213F57A7342F1D0
:109580000002C4E90032BDE87040FFF7C5BF636860
:109590005B7923B1236829461B682046984710341D
:1095A000B44211D91449154A154840F202230BF070
:1095B000E0FA14480BF0DDFA104840F202210BF0FB
:1095C000CFFA114C114EEBE7E1D32846FFF79CFF91
:1095D000BFF35B8F0E4B53E8001F013943E80012C5
:1095E000002AF8D1BFF35B8FA6E770BDC527002026
:1095F0009C120020E00D002052700300F56F030064
:109600005768030073700300506503006065030032
:10961000A012002070B5154D297829BB0120FFF755
:1096200017FE134C134EB44217D91349134A14486A
:1096300040F2C7130BF09DFA12480BF09AFA0F484C
:1096400040F2C7110BF08CFA63685B791BB1236899
:1096500020469B6898471034E5E7F5D3FFF762FF93
:109660000028FBD101232B7070BD00BFC62700204E
:10967000506503006065030052700300F56F03003E
:1096800057680300737003002DE9F047304B314FEA
:10969000FB1A1B090BD13049304A314840F2AB3339
:1096A0000BF067FA40F2AB312C480BF059FA00216D
:1096B0000846FFF7CDFD044650B340F267684FF00F
:1096C00000090CF007FD274B274A1B58136033B1E4
:1096D000264B1B68092B02DD254807F095FFDFF8B4
:1096E00090A0002544B12046FFF780FD044618B93C
:1096F0004FF0FF384FF0FF39FFF714FF064628B947
:109700005DB942464B46504607F0FCFF3546E9E757
:109710004FF0FF384FF0FF39D3E70D4D08E0F0D29E
:109720002B689B691BB100221146284698471035CB
:10973000BD42F4D90F49094A094840F29F330BF062
:1097400018FA0D480BF015FA40F29F31ACE700BF54
:10975000506503006065030092700300F56F03001D
:10976000576803000800000098120020A012002093
:109770009C070020527003007370030013B52C483F
:109780000BF0ECFB2B4B1B78002B35D0EFF3118447
:10979000202383F31288BFF36F8F274809F026FE3A
:1097A00068B9264A2649274888230BF0E2F922495E
:1097B00025480BF0DEF9882120480BF0D1F91E482E
:1097C00009F038FEFFF7AEFE1B4809F01DFE68B930
:1097D0001A4A1E491B4840F231130BF0CAF91649C8
:1097E0001B480BF0C6F940F23111E5E784F311880C
:1097F000BFF36F8F02B010BD164B1B68002BF9D062
:1098000050B900220023CDE9002313484FF4004251
:1098100000230AF04FF9EDE70928EBD10E480CF0D0
:109820009AFB0E4802B0BDE8104007F0EDBE00BF45
:10983000A0120020C627002094120020C46D03004F
:10984000F16D030057680300066E03001C6E0300F1
:10985000336E030098120020E80D00209C070020C2
:1098600010B5064B1B68044698472146A060044883
:10987000FEF7D8FEBDE81040FFF780BF9C05002032
:10988000B8060020044A054B9B1AB1EBD30F34BF36
:1098900052F8310000207047D06403005065030087
:1098A0002DE9F04F8FB004AFC1F34A28B8600D46E0
:1098B00091467B600C0DB8F1000F68D0002607F1CF
:1098C00014034FF0040B4FF00A0AC7F80C80C7E9E5
:1098D00007667E620193CDF808B0CDF800A007F1CD
:1098E0001C03F96832464846FEF74CFBB0F5006FA2
:1098F00003461CD36C468AB0D9F8041004AB2C483C
:10990000C3E9050140F2FF71D9611A464FF40071B5
:109910001984284B42F8103F274833464FF4125120
:10992000FFF7BEFFA5462C37BD46BDE8F08FC0F35C
:109930000A0804F11700184420F0070080083B6073
:10994000FFF7D4FD68F35325044640B33B681B4A38
:10995000C7E9083600F1100107F11403F961CDE9F8
:1099600000A3CDF808B0F96807F11C034846FEF7DC
:1099700009FB002813DA12491248134A4FF4A37363
:109980000BF0F7F810484FF4A3710BF0E9F804F16D
:10999000170020F007008008FFF7A8FD044668F3D1
:1099A00053257B68B9682A4620460BF016FBBAE7B8
:1099B000BB70030004000001F8640300AF4F030014
:1099C0002771030057680300FA7003002DE9F04F78
:1099D00087B0DDE91279DDE9106A04460391934608
:1099E000984627B3CDF800903B4652461021002000
:1099F000CDF81490FEF7AAF8051E0BDA2649274A7F
:109A0000274840F265130BF0B4F840F26511234883
:109A10000BF0A6F8B5F5006F0ADB224A224840F2A7
:109A2000FF73022107B0BDE8F04F0BF02FBB3D469E
:109A300006F11700284420F0070004F0070480080E
:109A4000FFF754FD0BF0070BE40044EA8B1444EAE3
:109A5000452444EA06540646A0B19FB1CDF80090D3
:109A60003B46524629461030FEF770F8002809DAC6
:109A700009490A4A0A484FF4C4730BF07AF84FF4C4
:109A8000C471C4E7039943462246304607B0BDE897
:109A9000F04F0BF0A2BA00BF26710300FA7003006A
:109AA0005768030030710300F8640300406820B178
:109AB000034BC01A40F3CF0070474FF0FF307047A0
:109AC000D06403000EB403B503AB014653F8042B76
:109AD0000448019302F0AEFC02B05DF804EB03B061
:109AE000704700BF059B0200CA0605D48B064CBF19
:109AF00002490349FFF7E6BF704700BFC38A03006E
:109B00006871030038B54B681A68CB689A420546FD
:109B10000C4602D108460BF0DDFA6368BFF35B8F99
:109B200053E8002F511C43E800100028F8D1BFF380
:109B30005B8FA3689D5463681A68E3689A4209D9E9
:109B400005490648064A72230BF013F804487221AF
:109B50000BF006F8002038BD9A7103005768030027
:109B60006B7103002DE9F04F89B09B46149B06935F
:109B70009DF84CA0159B0593169B179E04930446D5
:109B80000D469046BAF1000F00F0AD80BAF1040F17
:109B90000BD9A349A34AA44840F246230AF0E9FF9F
:109BA00040F246219F480AF0DBFF06F480730793DA
:109BB0000BF0F2F906F00209024600283FD09B495B
:109BC0002046FFF77FFF0746B9F1000F08D016F0D7
:109BD000440F36D196492A462046FFF773FF0744C3
:109BE00006F0010353B1934B934953F82A20934B4A
:109BF0002046002A08BF1A46FFF764FF06F4807368
:109C0000002B4AD006F00803002B64D1B8F1000FF6
:109C100067D08B4942462046FFF754FF0546069B16
:109C20003D44002B6ED1049B002B40F08380F30752
:109C300000F1F08031462046FFF756FFE4E007468A
:109C4000C2E7804B18680028C9D07F4B4FF47A795F
:109C50001B68B5FBF3F54FF46163B5FBF0F100FB56
:109C6000115509FB05F54FF03C0CB1FBF3F203FB7A
:109C70001211B5FBF0FEB1FBFCF300FB1E550CFB13
:109C8000131109FB05F50091B5FBF0F56F49CDE91E
:109C900001E52046FFF716FFA1E706F00803EBB148
:109CA0006B4B6C4953F82A202046FFF70BFF054603
:109CB000B8F1000F05D0624942462046FFF702FF87
:109CC0000544BBF1000FAAD063495A462046FFF76E
:109CD000F9FE0544A3E74FF0000BE1E706F00805A5
:109CE000E6E745469BE7BBF1010F069B06D1DBB9D2
:109CF000049B002B00F0888000251BE0002BF7D090
:109D0000564812E05648069B564922460AF0C1FEC4
:109D100000280CDA5449434A43484FF428730AF0A8
:109D200028FF4FF428713DE74D485546EBE7049B6B
:109D3000002B65D0DFF83481DFF83491049F314681
:109D4000102F204628BF1027FFF7CEFE4FF0000B44
:109D50005D4542DC059B49461A782046FFF7B2FE76
:109D60004FF0010B1BF0070F03D141462046FFF7D0
:109D7000A9FE5F4538D9059B494613F80B202046BC
:109D8000FFF7A0FE0BF1010BBBF1100FEAD139492F
:109D900020464FF0000BFFF795FE5A46059B9A5C54
:109DA000A2F120015F2928BF2E2233492046FFF768
:109DB00089FE0BF1010BBBF1100F1AD01BF0070F3E
:109DC00003D141462046FFF77DFE5F455A46E5D860
:109DD00041462046FFF776FEEBE741462046FFF777
:109DE00071FE0BF1010BB3E724492046FFF76AFE31
:109DF000C8E7059B3B440593049BDB1B04939DD163
:109E0000BAF1000F7FF413AF204609B0BDE8F04F60
:109E10000BF060B9094A08492046FFF753FE09E7ED
:109E2000CF7103006B71030057680300DA71030000
:109E3000DE710300AC650300366A0300CA710300DB
:109E400003720300AC120020A8120020E771030087
:109E5000C0650300077203000D720300EF5003009A
:109E6000059B020035C40200127203002372030036
:109E70001B72030025720300277203002172030086
:109E800073B542F20F738B4228BF0B4605680F4A29
:109E90000446052168460AF091F963680C495B683D
:109EA00006460B2228460BF007F9636832466946DE
:109EB00028465B680BF000F9636806495B681B2263
:109EC00028460BF0F9F802B070BD00BF2A7E0300EF
:109ED000467203002A720300074A002101239042C0
:109EE00006D8064A01B901231360054B1860704774
:109EF00040085B000121F2E740420F00A812002059
:109F0000AC120020014B01221A707047C7270020B5
:109F1000014B002019607047C41200200148FFF770
:109F2000AFBF00BFF065030010B5064B18680C46C4
:109F3000FFF706FA21460346BDE8104002480F220B
:109F4000184700BFC4120020F0650300F8B5094DA2
:109F5000094B0A4ED5E9004701221A700CB92C6052
:109F6000F8BD214630463A4600F01EF8241A064451
:109F7000F4E700BFB8120020C8270020C92700203E
:109F800010B9074B18707047064B1B781BB141F294
:109F900088300BF0AEBEA420002108F0FBBE00BF4D
:109FA000C7270020C82700202DE9F047DFF8789068
:109FB0001E4F80460E46042499F80050A5B90BF0B8
:109FC0008BFE324682464146284606F0CDFB0546CA
:109FD00050460BF089FEE5B101233B7099F8003043
:109FE00073B93046BDE8F08732464146002006F09E
:109FF000BBFB0546EFE72046FFF7C2FF651E2C4678
:10A00000002006F03BFC0028EBD03B78002BF2D17F
:10A01000E7E73B78002BE4D0013C2046FFF7B0FF98
:10A020003B78002BC8D1DCE7C8270020C7270020D9
:10A03000014B0360002070470066030010B5044622
:10A040000BF066FA10F1780F00D050B9054A20469F
:10A050000BF090F8D2F8C43023EA0003C2F8C43001
:10A06000002010BDC81200202DE9F0471C4CDFF87D
:10A070007480DFF8749005460E461746444529D98A
:10A080001A491B4A1B484FF4BB630AF072FD1A4879
:10A090000AF06FFD16484FF4BB610AF061FD62687B
:10A0A000D9F824309A4213D3A3698BB1A988907848
:10A0B000C9B2884205D13A4631462846BDE8F04744
:10A0C00018475279012A03D13A4631462846984723
:10A0D0002434D3E7E3D36FF08500BDE8F08700BFF9
:10A0E000780800209C080020C8120020B4720300E9
:10A0F0008272030057680300737003002DE9F0417A
:10A10000154B164F5E6A164BBB421FD91549164AAE
:10A11000164840F2BB530AF02CFD15480AF029FD01
:10A12000114840F2BB510AF01BFD5C68B4420BD3EE
:10A130001D694DB194F802C08488E4B2A44503D1EE
:10A140002B46BDE8F04118472433DDE7EDD36FF02F
:10A150008500BDE8F08100BFC81200209C080020E7
:10A1600078080020B472030082720300576803006D
:10A1700073700300024B00221A605A60704700BFE0
:10A18000831300202DE9F041134CDFF85080054681
:10A190000E46174644451AD91149124A12484FF43F
:10A1A000C1630AF0E6FC11480AF0E3FC0D484FF4E5
:10A1B000C1610AF0D5FC63690BB92434EAE73A4679
:10A1C0003146284698470028F7D1BDE8F081F2D300
:10A1D0006FF08500F9E700BF780800209C08002098
:10A1E000B4720300827203005768030073700300A7
:10A1F000430670B520D0134B134CA3421ED913490C
:10A20000134A14484FF47D730AF0B3FC12480AF065
:10A21000B0FC0F484FF47D710AF0A2FC196A1E7F52
:10A2200000220439D5B2AE4201D82433E5E7013229
:10A2300011F832508542F5D1012001E0EED3002023
:10A2400070BD00BF780800209C080020B472030095
:10A25000827203005768030073700300F7B58488A7
:10A26000E4B220460F468DF80740FFF7C1FF0546D0
:10A2700080B114F07F0F0E4E02D096F8BA30ABB119
:10A28000204657B102F0C0FEF3691BB10DF1070182
:10A2900008209847284603B0F0BD02F0E7FEF369B6
:10A2A000002BF7D00DF107010920F2E71D46F1E779
:10A2B000C812002008B509480378C3F341130A33D4
:10A2C00050F823303BB100F1080200F1100198472B
:10A2D000C043C00F08BD1846FCE700BFC8120020ED
:10A2E00004282DE9F14FDFF8D49004460F461AD028
:10A2F000012831D1DFF8C88098F8B93063B300F095
:10A3000069FE304D4D4537D92F49304A304840F22B
:10A31000C2430AF02EFC2F480AF02BFC40F2C24147
:10A320002A480AF01DFCFFF725FFE3E70BEBC60602
:10A330000AF1010A30790BF0EBF8024630790AF0A5
:10A3400019FFD8F8C430002A23EA0003C8F8C43043
:10A3500017DA002388F8B9301A4D4D4520D91A492B
:10A360001A4A1B4840F2EE430AF003FC19480AF06F
:10A3700000FC40F2EE41D3E7EBD2D5F820B04FF02D
:10A38000000A2B7F5FFA8AF6B342CFD82435B9E7AB
:10A39000EB681BB13A462146284698472435DCE74E
:10A3A000F6D3074B1B6A2BB13946204601B0BDE8F6
:10A3B000F04F184701B0BDE8F08F00BF9C080020A7
:10A3C000C812002078080020B472030082720300D3
:10A3D000576803007370030073B586788DF80060CA
:10A3E000037942791C4C43EA0223ADF80230C3786A
:10A3F000304603F003038DF804300AF0BBFED4F8B6
:10A40000C430184205460BD0304600F0C5FD30463A
:10A41000FFF714FE0BF01CFD10B9962008F0FEFCAF
:10A42000684602F0C3FD10F1780F03D010B1002090
:10A4300002B070BD9DF8000002F054FE10F1780FDC
:10A4400001D00028F3D1D4F8C43001202B4384F884
:10A45000B900C4F8C430EBE7C81200202DE9F0477A
:10A46000A84EB36904460F461546FBB9237803F09E
:10A470001F03012B00F09E80022B00F0068133BBEE
:10A4800094F900002A686178002834DA062912D08D
:10A4900008292BD0D9B901231370517096F8C33015
:10A4A0005B0043F001031370022328E19847002862
:10A4B000DCD100200DE06288100A011F01298446CA
:10A4C00005D9072803D8716AD2B20C781CB96FF08D
:10A4D0001500BDE8F0874E78664503D19A4200F03A
:10A4E000098101332144F0E70B7808E196F8BA308E
:10A4F0001370012303E101390829E8D801A353F8B7
:10A5000021F000BF9FA50200CFA40200ADA502006C
:10A51000CFA4020029A50200CFA40200CFA402000C
:10A52000CFA4020037A502006088C0B202F0E4FCAC
:10A530000028BED0CBE76388756A63BBFFF71AFEBD
:10A54000638886F8BA30F369002BB2D06E490320D5
:10A550009847AEE76B78042B10D0052B11D0022B57
:10A5600004D16F796388BB4208BF01202B781D445A
:10A570002B78002BEED10028A9D0DFE795F80380D7
:10A58000F4E76388BB42F1D1B8F1000FEED1284661
:10A59000FFF722FFEAE7FF270020B846E8E76388D5
:10A5A000012B94D1002386F8C33082E76388012B06
:10A5B0008DD1F8E796F8BA30D5F800C0002B86D0D8
:10A5C000A388756A5FFA83FE2A46107800283FF454
:10A5D0007EAF5178022904D192F80480F04500F250
:10A5E00095800244F1E78CF800208CF80120396056
:10A5F0005FE7154496E00B2A7FF469AF00274FF020
:10A60000FF08C146BA4606E06B78042B0FD0052B35
:10A6100021D02B781D442B78002BF5D1F36913B191
:10A62000514607209847002F7FF443AF4FE795F836
:10A630000280A38895F803909845EAD163889945EC
:10A64000E7D1B8F1070F1DD806EB0803AA4683F837
:10A65000BB900127DDE7A3884345DAD16388DBB2ED
:10A660004B450AD0AF78384600F096FC3846FFF7E5
:10A67000E5FCB0FA80F77F09CBE72846FFF7ACFE90
:10A680000746C6E7AA460027C3E794F90020637887
:10A69000002A19DA002B7FF41AAFA4882D68E4B2DF
:10A6A0002046FFF7A5FD00283FF411AF630604D054
:10A6B00096F8BA30002B3FF40AAF2946204602F044
:10A6C000F5FC00236B70EFE6012B08D0032B7FF421
:10A6D000FEAE6388002B7FF4FAAE012103E06188AF
:10A6E00000297FF4F4AE2046FFF7B8FD00287FF480
:10A6F000E0AEECE6022829607FF4F6AE4B883B60C2
:10A70000D7E600BFC81200208213002094F9000091
:10A7100062780028BFF66FAF002A3FF464AF0A2AC0
:10A720007FF4D5AE2A78002A3FF4D1AE69780429A7
:10A730007FF45FAFA9788B427FF45BAF072B96BFA6
:10A740009B19002393F8BB308CF80030D1E600BF92
:10A7500013B5164C237DF3B9E268A168019201ABF1
:10A7600080200AF015FD019AA3681344A360E368F2
:10A770009B1AE3606BB962B12369E2889A4208DDF3
:10A7800094F8C82093FBF2F102FB11330BB90123BB
:10A79000237502B010BD00231A4619468020237588
:10A7A00002B0BDE8104002F0C7BC00BFC8120020D4
:10A7B00030B585B0002302460D460193002858D1DC
:10A7C000002935D108220B460DEB02010AF0B9FE33
:10A7D000002804DA802002F017FC05B030BD304CB0
:10A7E000029A2260039A626004F13802A2609DF925
:10A7F0000820BDF80E302575002AC4E903550ADB90
:10A80000802B04D9802002F0FFFB0020E3E713B186
:10A81000C4E90333E1E7FFF74DFD0028DAD0E28811
:10A8200023699A42D4BFE260E360FFF791FFD4E767
:10A830001B4CD4E90215002D01AB04DC0AF081FEAB
:10A840000028CADAC6E72A460AF07BFE0028D9DBD0
:10A85000019AA3681344A360E3689B1AE360002B8A
:10A86000BBD104F13803A360FFF724FD0028DCD13D
:10A87000B0E7802807D10A4BDA68002AD5D11B7DC2
:10A88000002BD2D1A9E707490748084A4FF4C573FE
:10A890000AF06FF905484FF4C5710AF061F900BF7D
:10A8A000C8120020DA910300576803008272030087
:10A8B000054B064A9A62064ADA62064A1A63064A53
:10A8C00058629A6100207047C81200205DA40200FF
:10A8D000FDA0020085A1020069A002002DE9F3415C
:10A8E00004464F4D4F484FF0FF334FF0FF3206F014
:10A8F00083FB95F8B830002B40F08C806B6A83B1F5
:10A9000049482C62E8616E6A02F058FD02F0C2FA12
:10A91000041E10DA434806F03FFC204602B0BDE8B2
:10A92000F08100F0D5F8FFF7C3FF6B6A002BE7D189
:10A930004FF0FF34EEE700F06FFB041EEADB7378A4
:10A94000012B6AD1F379002B67D00026684685F881
:10A95000C830ADF802308DF804608DF8006002F068
:10A9600025FB041ED6DB802768468DF8007002F0B8
:10A970001DFB041ECEDB2D49304602F00BFD041EEC
:10A98000C8DB2A49384602F005FD041EC2DB284C0C
:10A99000DFF8A080444521D92749284A28484FF4A8
:10A9A000C3630AF0E6F827480AF0E3F823484FF4B7
:10A9B000C3610AF0D5F8276A0026227FF3B29A42D3
:10A9C00001D82434E6E707EBC30257F833101079B7
:10A9D00002F0E0FC01360028EFD0A9E7EBD300201D
:10A9E00002F080FB041E95DBD5F8C430802043F0D4
:10A9F0000103C5F8C43002F075FB041E8ADBD5F8EC
:10AA0000C43043F48033C5F8C430012385F8B8302E
:10AA100000247FE76FF077047CE76FF0150479E797
:10AA2000C812002068070020E1A20200B1A70200BE
:10AA3000780800209C080020B47203008272030092
:10AA4000576803007370030030B51F4B8BB005AA25
:10AA500003F1100518685968144603C40833AB4263
:10AA60002246F7D11B7823701022002101A80BF099
:10AA7000ADFA1222002115480BF0A8FA102101A806
:10AA80000AF0F7FD00281BDD0828B8BF08200938A8
:10AA900001AB0E491A18002012F8013F0AAC04EB72
:10AAA000131403F00F0328336B44013014F8144CD3
:10AAB00013F8143C0C7008284B7001F10201EBD123
:10AAC00002480BB030BD00BFD7720300DA27002068
:10AAD0002DE9F04F894B93F800B087B0BBF1000F20
:10AAE00003D0874807B0BDE8F08F854C00264FF0B3
:10AAF000011AB0463546B14623783BB9814B023442
:10AB00009C42F3D17D4A01231370EAE76378052B59
:10AB10002DD8DFE813F0AC000600F000AC002F00E9
:10AB20005700402304A88DF810B0ADF812308DF80E
:10AB300014B002F00FFAB8B1082304A8ADF812302F
:10AB400002F008FA80B17049704A7148ADF812B04D
:10AB500040F28F130AF00DF86E480AF00AF840F23E
:10AB60008F116A4809F0FCFFBDF81230E3712378B9
:10AB70001C44C1E7E378002BF9D1A378EBB9664D0B
:10AB800003E06B689C4213D02435644B9D420CD982
:10AB900063495E4A5E484FF49B7309F0EAFF6148DF
:10ABA00009F0E7FF4FF49B71DBE7EAD3002099E758
:10ABB000AB6813B141462046984708F101085FFA97
:10ABC00088F8D4E7002DF1D000222B7F9A42EDD2F5
:10ABD000296AA07801EBC2010B79984201D00132B9
:10ABE000F3E70127E07800F003008DF814002079E6
:10ABF00094F805C040EA0C20ADF8120094F9020068
:10AC00000028FBB228DA07F110004FF0010C0CFA13
:10AC100000F010EA0A0F26D143F080008DF81000F2
:10AC200004A8CDE90213019202F094F9DDE90121B3
:10AC3000039BC0B99DF81020A27012F0800F18BFBE
:10AC400010330A7118BFDBB24FF0010214BF9A40F3
:10AC5000BA404AEA020A8AE70120B84010EA0A0F1D
:10AC600001D11846DAE70137102FBBD1B7E7032E21
:10AC70001AD1FFF7E9FE074650B1FCF75BFA02462E
:10AC800030B11028A8BF10223946A01C0BF090F953
:10AC900023786FF00200E118001B04EB5303C84255
:10ACA00013D50136F6B262E7002EF1D1B9F1000FEB
:10ACB0003FF47CAFA4EB090389F80230C3F3072308
:10ACC00089F8033089F80480EBE71A78203A5E2A85
:10ACD0000AD915490D4A0E48CB2309F04AFF1348FB
:10ACE00009F047FFCB213CE701F801BC13F801292B
:10ACF00001F8022DD3E7A14639E700BFD92700208C
:10AD0000D0070020770800201E730300E8720300BC
:10AD10005768030027730300780800209C08002070
:10AD2000B4720300737003004E7303008573030055
:10AD300010B5094B00211A461C78844204D15C6886
:10AD400014B102EB811010BD0131042903F140035D
:10AD5000F2D10020F7E700BF941300202DE9F34162
:10AD600050F8283C10F82C6C103304460AD10369C3
:10AD700050F8202C980736D5D2B9590715D500239D
:10AD800044F8283C54F8283C10330BD054E907759C
:10AD900054F8148C0BF05CF800284FD02E48214654
:10ADA0000BF046F802B0BDE8F08143F004032361E4
:10ADB00054F8241C01AB30460AF0EAF910B16FF0E8
:10ADC0001503DDE7019A54F8243C134444F8243C6D
:10ADD00054F8203C9B1A44F8203C54F81C3C134483
:10ADE00044F81C3CCEE754F8241C01AB304602F07A
:10ADF0002DFA0028E3D1019D54F8243C2B4444F85B
:10AE0000243C54F8203C5B1B44F8203C54F81C3C88
:10AE10002B4444F81C3C002DB1D0304602F0D4FA4B
:10AE2000B5FBF0F303FB1055002DA8D154F8203CDE
:10AE3000002BA4D0304602F05FFAA3E744F8180CC8
:10AE4000A4F1100006F0E0FB002DABD042463946DD
:10AE50003046A847A6E700BF200E00204B1E012B5E
:10AE600073B506460D460FD8FFF762FF044668B972
:10AE7000012D09D101AB01220DF10301304602F091
:10AE8000E5F9019B002BF5D102B070BD0AF0E0FF9F
:10AE900004F12C0108B1012D05D1084602B0BDE82E
:10AEA0007040FFF75BBF034802B0BDE870400AF096
:10AEB000BFBF00BF200E00202DE9F74F06460191CD
:10AEC000154698460AF0ACF9044600285BD1EFF32A
:10AED000118A202383F31288BFF36F8FDFF8ACB0A1
:10AEE00000220023584606F00DFC70B9DFF8A09050
:10AEF000A70109EB8414636813F1100F14D10193B7
:10AF0000584606F081FB019B06E00134042C0BF14E
:10AF1000400BE5D16FF00B038AF31188BFF36F8FFD
:10AF2000184603B0BDE8F08F019B2061C4E90235EB
:10AF30000C9B63610D9BA36130466FF00F0309F812
:10AF40000760C4F83C80636002F03EFA58B13046B6
:10AF500002F03AFAB5FBF0F303FB10551DB1E36BB9
:10AF600043F00403E36318F0020F07D007F12C014C
:10AF7000084849440AF05CFF0023CDE7304602F060
:10AF8000BBF90346C8E76FF00F03C9E7B013002011
:10AF900094130020200E002010B5EFF3118420231D
:10AFA00083F31288BFF36F8FFFF7C2FE50B143687F
:10AFB000103307D16FF08B03436000F12C0104487C
:10AFC0000AF036FF84F31188BFF36F8F10BD00BF06
:10AFD000200E0020F8B50E4C04252027EFF3118633
:10AFE00087F31288BFF36F8F6368103307D16FF058
:10AFF0008B030848636004F12C010AF019FF86F303
:10B000001188BFF36F8F013D04F14004E6D1F8BD14
:10B0100094130020200E002070B50A4C0A4E002523
:10B020003146204606F0AEFD0122A4F11000114683
:10B0300001350AF0DFFE042D04F14004F0D10020B8
:10B0400070BD00BFC01300205DAD02000169012387
:10B0500081F84B300B6833B191F849301BB102488D
:10B0600008310AF0E5BE7047200E00200169012377
:10B0700081F84A300B6833B191F848301BB102486F
:10B0800008310AF0D5BE7047200E002070B5056962
:10B09000EFF31186202383F31288BFF36F8FD5F867
:10B0A0009000FEF70FF8044686F31188BFF36F8F08
:10B0B00030B104480022002305F1180106F08EFE8D
:10B0C000204670BD200E002070B5012382F8483064
:10B0D00013680D4614463BB192F84A3023B10E482E
:10B0E00002F108010AF0A4FED4F89030DA885B89F6
:10B0F0009A4205D17DB904F1180140F6CD4204E031
:10B1000004F11801002DF8D00022BDE8704002487B
:10B11000002306F063BE70BD200E002070B50E4601
:10B1200081880446C9B2154815460AF055F810B38F
:10B1300094F900206378002A16DB202B04D0222B00
:10B140000ED06FF085000AE02B681A6840F8102CCA
:10B150009A8820F80C2C9B7900F80A3C002070BDDE
:10B16000638800F8093CF9E7212BEAD1103807235E
:10B1700028603360F2E76FF01200F0E794140020CB
:10B1800008B5014603480AF035F810B1012300F86C
:10B19000073C08BD941400200D4A03460021A0F886
:10B1A00048101068C3F8940090889279A3F898002A
:10B1B00083F89A2083F89C1083F89B10A3F89E10C4
:10B1C00083F8A010402203F14C000AF0FFBE00BF3C
:10B1D0006065030010B504690023C4F8A8300C4B67
:10B1E000C4F8A400596804F1A80269B9C3E90022AF
:10B1F00004F10800074906F0C5FC04F118000649EF
:10B2000006F0C0FD002010BD0A605A60F0E700BFE4
:10B21000941400204B520300D1B2020030B54FF419
:10B220000033426805690D4C85B042F2A100CDE9BA
:10B230000103002385F89D30106AADF80C100079E9
:10B240000A2201A909F0A4FF95F89D3023B9012035
:10B250000AF04FFD013CF7D105B030BDA1860100D9
:10B2600073B504698DF80710002384F84830202551
:10B27000EFF3118685F31288BFF36F8F0122D4F8A4
:10B2800090000DF10701FDF71DFF86F31188BFF354
:10B290006F8F01280AD00AF0DBFD10B994F8A130B5
:10B2A0006BB9094B1A780AB901221A7021220023BE
:10B2B00004F11801054806F091FD02B070BD0021AF
:10B2C000212007F067FDD3E7EC270020200E0020A7
:10B2D000F0B5D0F88C305B681B6A1F7D85B00546E1
:10B2E000384609F09DFF064650BB95F886303BB3C3
:10B2F000A86F0146C38831F80A2F9B1A9BB2B3F599
:10B30000806F28BF4FF4806303AA09F0C3FD044691
:10B31000B0B18306A5F1180308BF00F1FF3485F82A
:10B3200030600193074B039900932246022338466D
:10B33000FFF7C2FDA86F224600F10A0109F0E0FD07
:10B3400005B0F0BDC9B0020037B514460A1E054667
:10B3500021DDD4F88C0004F14C01FDF7B3FE01238C
:10B3600084F8493023683BB194F84B3023B111483D
:10B3700004F108010AF05CFDD4F88C2093889189CF
:10B3800012695B1A9BB2D31A3F2B04D8012384F8AD
:10B39000A03003B030BD94F89E30002BF9D0064B9E
:10B3A000009301940123402204F14C012846FFF749
:10B3B00083FDEEE7200E002049B30200F7B50D46ED
:10B3C00001461D4809F0FCFE044610B30646691EFE
:10B3D00056F8A4395F6805291BD8DFE801F01C1A6C
:10B3E000031C222610F8061C99B9012300F8063C1C
:10B3F0003B6A3246187BFFF7A7FF14F85C2C42B972
:10B400003B6A187D0D4B0093019602231146FFF70E
:10B4100053FD03B0F0BD304603B0BDE8F040FFF788
:10B42000BBBE012304F8053CF3E710F8053C002BF4
:10B43000EFD00023F6E700BF94140020C9B002004B
:10B4400037B5094D0949002400944FF0FF334FF4FC
:10B450008062284606F026FC0549284606F042FD93
:10B46000204603B030BD00BF200E0020C0360020B3
:10B47000E273030008B5044809F065FBBDE8084025
:10B48000024809F060BB00BFEB73030020740300A7
:10B49000014808F0EBBC00BF0066030038B5044665
:10B4A00018B90F4B0F485B6898476168B1F5683F62
:10B4B00010D0B1F5680F0DD00B4DA9420AD011F490
:10B4C0006861206807D00146084805F0B5FC0023F4
:10B4D0002360656038BD14220AF078FDF9E700BFEB
:10B4E000480600204E7403002C5F5CA99C190020C4
:10B4F00008B520B34368B3F5683F10D10122036853
:10B50000BFF35B8F53E8001F002903D143E80020FD
:10B510000028F7D1BFF35B8F0DD1002008BD094A89
:10B5200093420AD000684FF0FF324FF0FF3305F02E
:10B5300063FD0028F1D00448F0E70448EEE76FF41B
:10B54000E040EBE72C5F5CA9E98FFFFFEA8FFFFF8C
:10B5500008B5D8B14368B3F5683F10D1002203683D
:10B56000BFF35B8F53E8001F012903D143E800209C
:10B570000028F7D1BFF35B8F0BD1002008BD074A2D
:10B58000934208D0006805F007FEF6E76FF4E0404C
:10B59000F4E70348F2E70348F0E700BF2C5F5CA93B
:10B5A000E98FFFFFEA8FFFFF10B5044618B91D4B66
:10B5B0001D485B6898476368B3F5683F2FD0B3F5C3
:10B5C000680F2CD0194A934219D1236803BB18483D
:10B5D0004FF0FF324FF0FF33214605F0A1FB08B9D1
:10B5E00023681BB90F4B13485B68984720681422E7
:10B5F00000210AF0EBFC4FF46863636008E0B3F5E8
:10B60000683F0DD83A2B03D040F6BA629342DED1A0
:10B6100020680AF0D1FB636843F03A03636010BD11
:10B62000054AF3E7480600204E7403002C5F5CA92E
:10B630009C190020747403003A00003A08B50649CA
:10B640000648402314220AF0A0FBBDE80840044944
:10B65000044808F07DBC00BF9C1400209C19002009
:10B66000086603001C6603002DE9F047064600AF9C
:10B670000C46002936D0E9468AB0D1E90012A36809
:10B680006D462148A8464FF0050AC5E90501C5E900
:10B69000072348F810AF1D48424600234FF42151BC
:10B6A000FEF7FEF8CD46D4E903126369AD461848AB
:10B6B000C5F810A0C5E90501C5E907231348002313
:10B6C00042464FF42151FEF7EBF8CD46E369114AAB
:10B6D0000E48012109F0DAFCA3690F4A0B48012149
:10B6E00009F0D4FC012E07D1EFF305830B4A07487C
:10B6F000103B314609F0CAFC2146304605F010F9EE
:10B70000BD46BDE8F08700BFA174030020650300BB
:10B71000D0740300FF7403000E7503003C75030032
:10B7200030BFFFF7FDBF00BF2DE9F0410B4EDFF842
:10B73000308006EB0807CC1B0546324609492046F7
:10B740000AF036FCA01942460021083C0AF03EFCF3
:10B75000C5F8904007F10800BDE8F0810000000046
:10B760000400000060650300054B5A699B689A421B
:10B770001FBF044A536843F080535360704700BFB3
:10B78000A025002000ED00E070B5294C06460D46CE
:10B790002848294909F05DFEA36AD9043CD525480B
:10B7A000264909F056FE1720A36A1A0504D5214838
:10B7B000234909F04EFE18201D4CA36A9B0512D5A3
:10B7C0001C48204909F045FEA36BA26A100409D564
:10B7D0001D4A1848012109F059FC1EB1A36A23F43F
:10B7E0000043A3621920124CA36A590504D51148DD
:10B7F000164909F02EFE1A20A36ADA050ED50D4867
:10B80000134909F026FE1B20094A936A43F47F433B
:10B81000936200232B7070BD1620C5E7A36A9B04BA
:10B82000F2D504480B4909F014FE1C20ECE700BFD8
:10B8300000ED00E0206503004F750300657503000F
:10B840007675030089750300A2750300B7750300C0
:10B85000D2750300EA75030010B5204C2049214839
:10B8600009F0F7FDA36A990136D51E481E4909F073
:10B87000F0FD1E20A36ADA0104D51A481B4909F01D
:10B88000E8FD1F20154CA36A1B0304D51548184971
:10B8900009F0DFFD2120A36A590304D51148154999
:10B8A00009F0D7FD22200D4CA36A9A0304D50D4858
:10B8B000114909F0CEFD2320A36ADB0304D5094812
:10B8C0000E4909F0C6FD2420044A936A6FEA034337
:10B8D0006FEA1343936210BD1D20CBE700ED00E03B
:10B8E00019760300206503003176030044760300D7
:10B8F0005E7603007C760300A1760300BB7603002E
:10B900002DE9F8433F4D804689463F483F49174659
:10B9100009F09FFDAB6ADA0627D53D493A4809F0A0
:10B9200098FD1124AB6A1B0704D53A49364809F043
:10B9300090FD1224334DAB6A9E0718D53649324824
:10B9400009F087FD6E6BAB6A1C0646D5334A2E485C
:10B950003346012109F09AFBB9F1000F03D0AB6A1D
:10B9600023F08003AB62132403E01024DAE76FF0C6
:10B970001506244DAB6AD80704D52949224809F099
:10B9800068FD1424AB6A990604D526491E4809F0BF
:10B9900060FD15241B4DAB6ADA0602D4AB6A9B0727
:10B9A0000AD56B68180507D54146304600F0E0FA25
:10B9B000B0B180F309880224124B9A6A920642BF02
:10B9C0005A6A22F400525A629A6A42F0FF029A625C
:10B9D00000233B702046BDE8F8836FF01506C2E7F0
:10B9E000AB6AD906E8D51049104A11484FF4927352
:10B9F00009F0BFF80F4809F0BCF80C484FF49271F9
:10BA000009F0AEF800ED00E020650300E6760300E3
:10BA1000FC760300767503002F7703004777030059
:10BA20005D770300EA750300AE7703007C770300BF
:10BA300057680300F8770300F0B5794B8BB00446E4
:10BA4000586800AFC0F30803002686F31188BFF3DF
:10BA50006F8F02F07F45B5F17F4F07D102F00C05E3
:10BA6000082D12D16F49704809F0F3FC6F49704AF4
:10BA7000704840F2114309F07CF86F4809F079F8FA
:10BA800040F211416A4809F06BF815074CBF0C46AB
:10BA90000126002CEAD00022FA71DA1E092A00F2EF
:10BAA0009E80DFE802F0059497779C9C9C9C9C9A72
:10BAB00062495D485A4D09F0CCFC0023FB71EB6AEA
:10BAC0009A0705D55E49584809F0C3FC002329E0D0
:10BAD000EB6A002B01DA5B49F5E7EB6A5B0069D59D
:10BAE0005949514809F0B5FC6B69A26943F4807368
:10BAF0006B61BFF34F8FBFF36F8F6B6932F8022C0E
:10BB000023F480736B61BFF34F8FBFF36F8F4DF6DC
:10BB100002739A4227D123684C4A4348012109F015
:10BB2000B5FA2368FA79DAB907F1080504F1200CAF
:10BB3000206861682A4603C2083464451546F7D177
:10BB40007A6A002E67D0C2F3080121B96FEA522247
:10BB50006FEA42227A6207F108011846FFF784FD76
:10BB60002C37BD46F0BDAB6ADBB233B1FA1D012103
:10BB70002046FFF7C5FE0346D4E7AB6A13F47F4FB8
:10BB800004D0F91D0120FFF7FFFDF4E7AB6AB3F520
:10BB9000803F02D3FFF760FEEDE72D49244A254898
:10BBA00040F2EA2308F0E5FF2A4808F0E2FF40F2FD
:10BBB000EA2167E726491E4A1E4840F2ED2308F0B5
:10BBC000D8FF254808F0D5FF40F2ED215AE7FA1DCD
:10BBD0000021CDE7F91D0020D5E7204973E7204A71
:10BBE000204910F4F87F6D468AB018BF11466A46A6
:10BBF000103BD3611C484FF4007313841B4BC2E904
:10BC0000050142F8103F084800234FF41151FDF799
:10BC100047FEAD465AE722F4FF7222F0010299E78F
:10BC200000ED00E04978030020650300747803000C
:10BC30007C7703005768030087780300C57803000A
:10BC4000DC780300FD7803000B7903002A790300F8
:10BC5000DA910300467903006A7903009A790300B8
:10BC6000307803001B780300BE7903000400000154
:10BC7000044B5A6942F010025A615A6922F00802D4
:10BC80005A61704700ED00E0EFF30880EFF309819F
:10BC900001B57246FFF7D0FE01BD00BF002080F362
:10BCA0001488BFF36F8F0F4880F3088803F0D0FC2F
:10BCB00000200D490860BFF34F8F00F02BF82020C3
:10BCC00080F3118809484FF40461401880F3098813
:10BCD000EFF314800221084380F31488BFF36F8FC1
:10BCE00000F016F90051002094ED00E0403F0020E4
:10BCF0000749D1F890200023C2F307221846934247
:10BD000000DB7047C1F89830C1F8A0000133F6E7B6
:10BD100000ED00E008B572B6002383F31388FFF747
:10BD2000E7FF144B4FF0FF32C3F88020C3F88420A4
:10BD3000C3F88820C3F88C20C3F89020C3F894205F
:10BD4000C3F89820C3F89C20C3F88021C3F884214D
:10BD5000C3F88821C3F88C21C3F89021C3F894213B
:10BD6000C3F89821C3F89C2162B6BFF34F8FBFF38D
:10BD70006F8F08BD00E100E0084B9B6883420BD148
:10BD8000EFF3058343B1064B5A6842F080525A6084
:10BD90005A6A22F400425A6207F0BCB8A02500207B
:10BDA00000ED00E015498A684FF030001044EFF3D1
:10BDB000098C80E8F01F202080F31288BFF36F8F7A
:10BDC0000F4F4FF000664A698A603E60D2F89000DB
:10BDD0000C4C2060D2F894000023C2F8943080F319
:10BDE000118804B5104600F02BF9BDE8044002F1BB
:10BDF000300090E8F01F8CF309887047A0250020E0
:10BE000004ED00E0BC1900201EF0040F0CBFEFF39E
:10BE10000880EFF30980816911F8021C0229FFD024
:10BE200001B5724609F00AFB01BD00BF40B200280F
:10BE300007DB044A4109012300F01F00834042F858
:10BE40002130704700E100E040B200280CDB4309DC
:10BE5000064900F01F0020330122824041F82320D0
:10BE6000BFF34F8FBFF36F8F704700BF00E100E05B
:10BE7000054B420900F01F0053F82220012303FA6A
:10BE800000F01040704700BF00E100E038B54B1CE7
:10BE9000072B04460D460FD9114A124912486B234D
:10BEA00008F067FE114829460723224608F061FE84
:10BEB0000B486B2108F054FE40B20028ACBF00F1E3
:10BEC00060400B4A4FEA4313B8BF00F00F00DBB2EB
:10BED000AABF00F56140135480F8003338BD00BF9D
:10BEE000D1790300087A030057680300237A03001E
:10BEF00014ED00E0044B054A23F07F039360BFF389
:10BF00004F8FBFF36F8F70470070020000ED00E0AD
:10BF100008B5FFF7EFFF074AD2F8883023F4700323
:10BF2000C2F8883004F022FE07F08CFA00F05EF8C8
:10BF300004F064FE00ED00E042F8203C009B42F873
:10BF40001C3C0A49019B42F8183C029B42F8143CF5
:10BF500021F001014FF0807342F8043C42F8081CC4
:10BF60000023203A0265C0F894307047058402002F
:10BF70000A4A0346906878B113F1160FD0F8800092
:10BF800005D0A0F140029A4205D8834203D28142F3
:10BF900028BF002070470020704700BFA025002068
:10BFA00008B515460A4A0B4B9060D0F890201A60ED
:10BFB0000E4600F045F82C4686F309880020064B13
:10BFC00098472046002100220023044C204700BF50
:10BFD000A0250020BC190020635403000584020042
:10BFE000014B10221A61704700ED00E00448002365
:10BFF0002021C2180133302B82F80013F9D1704789
:10C0000000E100E008B5EFF30583064A103B02EBC0
:10C01000C30152F8330049688847BDE80840FFF77C
:10C02000A3BB00BF18620300024B034A034801216F
:10C0300000F08CB800000420000000202C660300F3
:10C04000D0F88020054B403A1A60054A4021C3E9E8
:10C0500001121846012100F09FB800BFC01900204E
:10C0600000000B1508B503461048D0F89020C2F325
:10C070000722013A934207D90D480E4A012109F0DF
:10C0800005F86FF0150008BDC0F898300A6822F076
:10C090001F021A4342F01002C0F89C208A6842F046
:10C0A0000102C0F8A0201846EDE700BF00ED00E057
:10C0B00010650300677A0300F0B50E4685B01F4691
:10C0C00004460025B5420DDA606810B397B1431EEF
:10C0D00018420AD0104A11482B46012108F0D6FF19
:10C0E0006FF01502104605B0F0BD1F28F2D9216887
:10C0F0000B42EFD12368019309F0D6F9A36801A997
:10C100000343D0B20393FFF7ADFF10F1160FE7D052
:10C11000421C01350C34D5E78D7A0300106503000D
:10C12000044B0522C3F89420BFF34F8FBFF36F8FEA
:10C13000704700BF00ED00E0BFF35F8F024B0022AD
:10C14000C3F89420704700BF00ED00E038B50D4DF6
:10C1500001232A780C46FFF7AFFF287016300FD165
:10C16000094A0A490A484FF4BB7308F002FD09481E
:10C17000214608F0FEFC04484FF4BB7108F0F0FCC7
:10C1800038BD00BFED270020B07A0300DA9103002C
:10C1900057680300DF7A030010B5144A00231278B1
:10C1A0000C46FFF789FF10F1160F08D0104A002146
:10C1B000D2F89030C3F30723984210DB10BD0D4A2C
:10C1C0000D490E4840F2951308F0D3FC0C48214667
:10C1D00008F0CFFC074840F2951108F0C1FCC2F806
:10C1E0009800C2F8A0100130E2E700BFED27002060
:10C1F00000ED00E0B07A0300DA9103005768030015
:10C200000B7B03002DE9F04F7B4C7C49D4F8903038
:10C210000D68C3F307239D4285B013D9784A794945
:10C22000794840F2AD1308F0A4FCD4F89020774888
:10C230002946C2F3072208F09CFC40F2AD11704879
:10C2400008F08EFCFFF778FF49680022954201F163
:10C250000C012DD16E4C6F4F25706846FDF7E8FE3E
:10C26000DFF8B481DFF8B49106460025AE4232D142
:10C27000237861490020D1F89020C2F3072293422D
:10C28000C0F2AF80FFF74CFFD1F89030C3F3072323
:10C29000082B00F0AC806249594A5B4840F21F23EA
:10C2A00008F067FC5F4808F064FC40F21F21C6E715
:10C2B000C4F8982051F80C3C23F01F03134343F0BB
:10C2C0001003C4F89C3051F8043C43F00103C4F857
:10C2D000A0300132BAE7009A02EB05132901D3F826
:10C2E0000CA00AEA0700B0F5000F60D00AD8B0F53C
:10C2F000001F38D0B0F5800F4ED0B0F5801F12D09F
:10C300000135B3E7B0F1807F5CD0B0F1007FF7D1A9
:10C310009868D3F804A0525809F0C6F8CDE901A2F4
:10C3200040F480200BE09868D3F804A0525809F03C
:10C33000BBF8CDE901A240F0885040F430200390D2
:10C34000207801A9FFF78EFE002846DA2D492C4AF5
:10C350002D4840F2D71308F00CFC334808F009FCD4
:10C3600040F2D7116BE79868D3F804B0525809F03F
:10C370009BF81AF0010F40EA0800CDE901B20390E2
:10C38000DED02A491E4A20487B2308F0F2FB2848C9
:10C3900008F0EFFB7B2152E79868D3F804A05258CD
:10C3A00009F082F8CDE901A240EA0900C7E79868E0
:10C3B000D3F804A0525809F077F8CDE901A240F073
:10C3C0008270BCE79868D3F804A0525809F06CF862
:10C3D000CDE901A240F08870B1E7237801332370E2
:10C3E0008EE7C1F89830C1F8A000013343E7002080
:10C3F00005B0BDE8F08F00BF00ED00E03866030037
:10C40000B07A0300DA91030057680300387B030019
:10C41000ED2700200000F0FF0000081100000206D8
:10C42000EB7B03003B7C0300C17B03006C7B0300C0
:10C43000927B0300F0B587B007460E4614460021F4
:10C44000102268461D4609F0C1FD02238DF8023016
:10C450002A46054B019321466846CDE9047607F04C
:10C46000D9FE07B0F0BD00BFC954030008B5024BA8
:10C470001B689847002008BDCC190020034B044AD4
:10C480001860937843F0020393707047CC19002032
:10C490000006002008B50649064821F00701C1F151
:10C4A000005202F58022FBF7B7FA002008BD00BF5A
:10C4B0000F800020D01900200E4A0123C2F8403519
:10C4C0004FF080424FF08051C2F87835D1F83001FA
:10C4D000082808D1D1F83411052904D80648415C50
:10C4E00009B1C2F838364FF080430122C3F88025E5
:10C4F0000020704700E001406B7C030020B1034B3B
:10C50000800143F001031847704700BF70650300C6
:10C51000BFF34F8F0549064BCA6802F4E06213432C
:10C52000CB60BFF34F8F00BFFDE700BF00ED00E021
:10C530000400FA05020600F07F0312D5082B05D18E
:10C54000010700F00F0306D50E48704710F0780F72
:10C5500012D100F00F034C2000EB43100A4B18449B
:10C560007047082B05D1020700F00F0306D50748D6
:10C57000704710F0780FF6D000207047044800EBA9
:10C5800043107047281B0020DC190020481C0020A5
:10C59000481B00200149024809F04ABC041A002047
:10C5A000E00E00200146014809F019BCBC0700203C
:10C5B000094C0A4A0A4808B5012108F0A3FF0949B5
:10C5C00009484FF4E373224608F0D3FA4FF4E371BD
:10C5D000204608F0C5FA00BF917C0300757C03007B
:10C5E00048650300DA9103005768030010B510494D
:10C5F000BFF35B8F002351E8002F012A03D141E8EC
:10C6000000300028F7D1BFF35B8F0CBF0120184624
:10C610000DD151F8044C14392046FCF7C9FC10F137
:10C62000780F04D12046BDE81040FCF755BC10BD82
:10C63000FC19002002480022002304F05BBF00BF69
:10C64000BC07002013B5124801F01EF9114B9842A7
:10C650001AD1114803F040FF0024104803F092FF64
:10C660000F49104800944FF0FF334FF4806205F0FB
:10C6700019FB0D490B4805F035FC0C480C4905F039
:10C6800081FA204602B010BD6FF00400FAE700BF47
:10C6900025CD02000000AD0B767F03005866030035
:10C6A000003B0020E00E0020C57C0300041A00209F
:10C6B00021C8020038B5002464F07F00C0B2FFF743
:10C6C00039FF58B91C491D4A1D4840F27A2308F029
:10C6D00050FA40F27A21194808F042FA013408F081
:10C6E000FEFE082CE8D1174D0024E0B2FFF722FF30
:10C6F00048B91149114A12484FF4207308F039FA29
:10C700004FF42071E7E7036903B90561013408F0CC
:10C71000E6FE082C05F14005E7D10B4808F0DFFEE6
:10C720000A4BD3F87C2212B9094AC3F87C22094883
:10C7300008F0D5FE002038BDD07C0300917C0300BA
:10C74000576803006C200020281B0020DC19002003
:10C750006C1C0020481C002010B5054CFFF76AFF38
:10C7600020B14168204604F067FBF7E710BD00BF29
:10C77000F806002013B500221248002301A904F096
:10C78000CFFAD8B1104A1148012108F0BBFEFFF7DB
:10C79000E3FF0C480022002301A904F0C1FA04467B
:10C7A00008B1FFF705FF0198042340600374FFF709
:10C7B000F9FEFFF7EFFE204602B010BD0198406081
:10C7C000FAE700BFF8060020D77C030048650300A5
:10C7D0000346024A0248012108F058BCF57C0300D8
:10C7E00048650300022810B511D80B4A145CFFF706
:10C7F000C1FF80B1002202740472FFF7D3FE074B21
:10C8000093F824303BB1BDE81040FFF7C3BEBDE84C
:10C810001040FFF7DDBF10BD737F0300DC1900205F
:10C820002DE9F043954DDFF8589285B08046FFF72B
:10C8300001FF074610B905B0BDE8F08395F8252043
:10C840003B7C3AB9002B00F0B68079688C4804F044
:10C85000F3FAECE7042B00F2E281DFE813F0AC001E
:10C8600005007C019201B30118F8043C33B9BB68A0
:10C870005B7A844A8448012108F008FCBC685CB9F2
:10C880008249834A83484FF44B7308F072F94FF49E
:10C890004B717F4808F064F93B7B032B46D8DFE8F7
:10C8A00003F0024C7277A27A62B17B49784A7948E8
:10C8B0004FF4397308F05DF9784808F05AF94FF4ED
:10C8C0003971E6E76669764B32607260D3F880149E
:10C8D0003170D3F884147170D3F88814D3F88C04B1
:10C8E00041EA00217180D3F89014D3F8940441EA0E
:10C8F0000021B180D3F89814D3F89C3441EA032383
:10C90000F3800823E36030687168664B03C3114607
:10C910002368607A984796F90030002B09DBF3888A
:10C920009AB232B1A5F88C3201F014FC796848460D
:10C930008DE70023A5F88C32F8E7637F002BF5D054
:10C94000237F002BF2D000264FF0FF325648667747
:10C950004FF0FF33267708F0D7FD636901936368D2
:10C96000CDE9023601A9607A01F00AF84F4A9042F7
:10C97000034604D04E4A4448012108F087FB4A4848
:10C9800008F0C4FDD2E723680121607A9847CDE71B
:10C99000A37A6BB9E37F5BB943484FF0FF324FF0A6
:10C9A000FF3308F0B1FD01F0DBFB3F4808F0AEFDBE
:10C9B00023680221E9E73B7A042BB7D8DFE803F0CC
:10C9C0009B032EB5C10000F0CFFE04460028ADD178
:10C9D00000F0CCFDBFF35B8F3649012351E8002FF7
:10C9E000002A03D141E800300028F7D1BFF35B8F64
:10C9F0009CD141F8084C41F8104CE8696B6114393E
:10CA0000FCF7D2F9002891DA2B49214A214840F25B
:10CA1000AA2308F0AEF840F2AA213AE7002464F015
:10CA20007F00C0B2FFF786FD48B91849184A194877
:10CA300040F2312308F09DF840F2312129E7037AD2
:10CA400013B1407A01F04CFD0134082CE7D195F880
:10CA500054311BB195F8550101F042FD0024E0B2BC
:10CA6000FFF768FD50BB0949094A0A4840F24323D1
:10CA700008F07FF840F243210BE700BFDC190020EB
:10CA8000F8060020107D030048650300D07C0300F9
:10CA9000917C030057680300367D03005C7D030032
:10CAA00000700240E0190020141A00200000AD0BB5
:10CAB000787D0300FC19002012720300037A13B181
:10CAC000407A01F00DFD0134082CC8D195F874327C
:10CAD0001BB195F8750201F003FD002000F010FE77
