:020000022000DC
:10700000C050002069BB02001553030055BB0200AD
:1070100055BB020055BB020055BB0200000000003A
:10702000000000000000000000000000D5BC0200CD
:1070300055BB02000000000071BC020055BB0200FD
:10704000D1BE0200D1BE0200D1BE0200D1BE0200FC
:10705000D1BE0200D1BE0200D1BE0200D1BE0200EC
:10706000D1BE0200D1BE0200D1BE0200D1BE0200DC
:10707000D1BE0200D1BE0200D1BE0200D1BE0200CC
:10708000D1BE0200D1BE0200D1BE0200D1BE0200BC
:10709000D1BE0200D1BE0200D1BE0200D1BE0200AC
:1070A000D1BE0200D1BE0200D1BE0200D1BE02009C
:1070B000D1BE0200D1BE0200D1BE0200D1BE02008C
:1070C000D1BE0200D1BE0200D1BE0200D1BE02007C
:1070D000D1BE0200D1BE0200D1BE0200D1BE02006C
:1070E000D1BE0200D1BE0200D1BE0200D1BE02005C
:1070F000D1BE0200D1BE0200D1BE0200D1BE02004C
:1071000053B94AB9002908BF00281CBF4FF0FF310E
:107110004FF0FF3000F00CB8ADF1080C6DE904CE73
:1071200000F010F8DDF804E0DDE9022304B0704758
:10713000704700BF034613F8012B002AFBD1181A31
:10714000013870472DE9F04786468C460846089E70
:10715000154674461946002B40F0C2808542B2FAAB
:1071600082F245D94AB1C2F1200300FA02FC2EFA9C
:1071700003F3954043EA0C0C94404FEA154EA8B235
:10718000BCFBFEF8230C0EFB18CC08FB00F943EA0D
:107190000C43994528D9EB1808F1FF3704D29945DB
:1071A00002D9A8F102072B44A3EB0903A4B2B3FB55
:1071B000FEFC0EFB1C330CFB00F044EA0344A0422F
:1071C00014D92C190CF1FF3304D2A04202D9ACF12E
:1071D00002032C44241A43EA07401EB1D440002382
:1071E00034607360BDE8F0874746DDE76346F1E74A
:1071F00092BB431B01214FEA154EAFB2B3FBFEFC1D
:10720000200C0EFB1C330CFB07F840EA03439845A7
:1072100062D9EB180CF1FF3004D2984502D9ACF1D9
:1072200002002B44A3EB0803A4B2B3FBFEFC0EFB4D
:107230001C330CFB07F744EA0344A7424ED92C1930
:107240000CF1FF3304D2A74202D9ACF102032C4463
:10725000E41B43EA0040C0E7C2F1200320FA03F137
:10726000954090402EFA03F303434FEA154EAFB218
:10727000B1FBFEFC0EFB1C10190C0CFB07F841EADD
:107280000041884504FA02F422D969180CF1FF3054
:1072900004D2884502D9ACF102002944A1EB0801CF
:1072A0009BB2B1FBFEFC0EFB1C110CFB07F743EA83
:1072B00001439F420ED9EB180CF1FF3104D29F42DB
:1072C00002D9ACF102012B44DB1B41EA004192E7F9
:1072D0006046E3E76146F7E76046A3E76346B7E742
:1072E000834206D916B9002108467BE7C6E900E0CB
:1072F000F9E7B3FA83F78FB9834201D3724508D80F
:10730000BEEB020460EB030301209C461EB9002182
:1073100068E73846FAE7C6E9004CF8E7C7F1200C01
:10732000BB4022FA0CF41C432EFA0CF120FA0CF3A9
:10733000B84001434FEA14490EFA07F5B3FBF9F8D8
:107340001FFA84FE09FB18300B0C08FB0EFA43EA07
:1073500000439A4502FA07F240D9E31808F1FF30DA
:1073600004D29A4502D9A8F102002344A3EB0A03F0
:1073700089B2B3FBF9F809FB183308FB0EFE41EAAA
:1073800003418E452CD9611808F1FF3304D28E4594
:1073900002D9A8F10203214443EA0040A0FB02986D
:1073A000A1EB0E014145CE46434602D306D14D45E1
:1073B00004D2B9EB020E68EB04030138002EA6D00C
:1073C000B5EB0E0261EB030101FA0CFC22FA07F3A4
:1073D0004CEA0303F940C6E9003198E74046C5E7A7
:1073E0004346D9E72DE9F04F8DB002AF01234D4A56
:1073F0004D480093032100230DF0BAFD00F0C4F9BD
:107400004A4D28460EF0E1FB80BB494A464802211E
:107410000DF09BFD00F0A0F8034620B1454A42481C
:1074200001210DF09BFD00F0D9F8034620B1424A3E
:107430003D4801210DF092FD00F032F900F018F9FD
:10744000DFF8E8903D4EDFF8F8806B681B685B0161
:107450002BD43C493C4A3D4840F2B6630DF0F1FA6A
:107460003B480DF0EEFA40F2B66111E06B68A96896
:107470001B682A6958010ED43249334A33484FF405
:107480007F730DF0DEFA32480DF0DBFA4FF47F71B6
:107490002D480DF0CDFA136843F0806313600B683C
:1074A0002C4A1A2128469847B4E7AB684FF0806110
:1074B0005B69484698474FF4804000210BF0D0FBB1
:1074C0003468142301343460B4FBF3F203FB124438
:1074D000002CBAD107F1080000F00EF9C7F804D06B
:1074E0008EB0D7E9051097F809B097F80AA097F879
:1074F0000CE0D7F810C0FB6902AAC2E90B130923FC
:10750000C2E9058BC2E907AEC2E909C042F8103FE3
:107510000548234644F6C00102F028F9D7F804D004
:1075200093E700BF80660300D86303008860030010
:107530009C6603005667030088670300481200201A
:107540009D670300E9660300B86603002767030030
:107550004467030001000A0010B512480EF035FB25
:1075600040B9114A114801210DF0EFFC6FF01204EF
:10757000204610BD002003F017F9044648B110F171
:10758000780F06D00A4A0346012108480DF0E6FCB0
:10759000EEE7084A05484FF4805303210DF0DEFC66
:1075A0000024E5E7A8600300EA670300B063030076
:1075B000036803001A6803000B78012B05D9062B1A
:1075C00006D1044B02221A707047034809F082BFAB
:1075D000704700BF8C2700207407002010B5144CA2
:1075E00020460EF0F2FA40B9124A134801210DF07C
:1075F000ACFC6FF01204204610BDA3681B6863B199
:1076000020460E4900229847044648B10C4A2346BA
:10761000012109480DF0A2FCEDE76FF05704F5E7F2
:10762000084B01221A70084B084A0321F1E700BFFA
:10763000C86003004A68030008640300B9750200CB
:107640005A6803008C27002040420F00786803002E
:10765000014B1878704700BF8C270020034B10B5F2
:1076600004460FCB84E80F0010BD00BF4864030040
:1076700010B5074C074920460AF09AFB20460BF04C
:1076800051FB054A0548BDE8104003210DF05DBCE3
:107690006808002099680300A5680300A063030040
:1076A00080B50F4B0F4A19780F4B00AF8AB00129F4
:1076B00008BF13466A460D49136240F20243516106
:1076C0009384D0200A4BDF21C2E9060142F8103F23
:1076D000084800234FF4335102F048F8BD4680BDFE
:1076E00080060020CB680300D0680300D468030044
:1076F00005000001C063030030B585B0044668464C
:10770000FFF7ACFF1E220021A01C0EF0C7FB164B9A
:1077100001251B7863702570FFF79AFF0023A37182
:10772000009BA360019BE360029B2361039B636159
:107730002071E57100F01AF8A06100F079F8207767
:1077400000F07CF860770CF036FF10B163792B43C2
:10775000637100F011F818B1637943F002036371AB
:107760000023A37005B030BD80060020014B1868CF
:10777000704700BF4C120020024B1868C0F3001085
:10778000704700BF4C120020F8B500AF1F4C2046D8
:107790000DF0EBFE08B1002323600DF00FFF1C4B32
:1077A0001C4A1D68246893E8030082E803001A4815
:1077B00085420DBFD988FF21C3E90001013105BF12
:1077C000D980002191805971DD881449FFF7D4FFD9
:1077D000134B8CB0002818BF0B46107951796A46BC
:1077E000104EC2E9074340F2024393850E4BC2E9B3
:1077F0000565C2E9090142F8103F0C4800234FF427
:10780000735101F0B3FFBD46F8BD00BF4C1200201C
:107810004055002050120020FE5A0E0D156903003D
:10782000948903002169030007000001006403003C
:10783000014B1879704700BF50120020014B587956
:10784000704700BF50120020F8B50F4600293BD00A
:10785000066830460CF0E9FE012201460446304637
:107860000CF0ABFEC3070DD4184A19491948AF23D1
:107870000DF0E7F8394618480DF0E3F8AF2113484A
:107880000DF0D6F8214630460CF0ADFE25182946FD
:10789000002230460CF091FE2D1AAC420BD00B4A60
:1078A0000E490C48B7230DF0CCF839460C480DF0C2
:1078B000C8F8B721E3E7214630460CF09AFE21468E
:1078C000BDE8F8400CF0D6BFF8BD00BF6669030004
:1078D00089690300276703009A690300D2690300DE
:1078E000F8690300B2F5802F2DE9F04110D2042A87
:1078F00028D84349434A44484FF407730DF0A1F890
:1079000042480DF09EF84FF407713E480DF090F894
:107910000823D21ACC1D114424F0070421F00701DA
:10792000091B17294FEAD1060ED83949354A36487E
:1079300040F225230DF085F834480DF082F840F22E
:107940002521E2E70423E4E7002704603146A6602E
:10795000E76030460CF07CFE0121421D8046304637
:107960000CF06DFE9200D51DED082844B0423AD8C7
:10797000B8F1FF3FA2F110023946B8BF3A4604F110
:1079800010000EF08BFA2A46394620460CF049FECC
:107990003B463A46394620460CF01AFEA6EB05084F
:1079A0002046394601220CF024FE424629460CF0BE
:1079B00038FE2B463A46294620460CF009FE314651
:1079C00020460CF02EFE43463A46314620460CF047
:1079D000FFFD3146204601220CF00BFE2946BDE892
:1079E000F0410CF005BF0B49064A074840F23A2324
:1079F0000DF027F805480DF024F840F23A2184E70D
:107A0000346A03006669030027670300556A0300B0
:107A10006E6A0300976A03002DE9F04F91B00546A6
:107A2000009302F004030193C2F3C20301330493F1
:107A30008307DDF8689002920E4640F0FC81041D39
:107A400030B1072909D86FF01B0011B0BDE8F08FE5
:107A500001F007063444C6F10806009B4FF0000809
:107A60004FF0040B591ECDF80C80474643464FF0AB
:107A7000FF32DA460DB1009820600498002800F328
:107A8000DF809B48DDF800C0844503D399488445D6
:107A9000C0F0D680DDF808C0A4EB050E1CF0020F84
:107AA0004FEA9E0000F0E7804FF0000CD1E07A280A
:107AB00062D84B280FD847285ED829282DD82528EA
:107AC00059D059D820287DD0A0F12309D9F100033D
:107AD00043EB090376E04C382E284DD8DFE800F060
:107AE000724C4C4C4C4C4C4C4C4C4C4C4E4C4C4CAE
:107AF0004C4C4C4C4C5C4C4E4E5C5C5C724E6F4C37
:107B0000724C184E184C4C817E4E4C4C4E4C7E00A4
:107B1000002000234FF0040B3CE02A384FF0010E08
:107B2000C0B20EFA00F04FF6DA7E10EA0E0F49D11D
:107B300010F0625E30D110F0010343D07046013C7A
:107B40005C44B4FBFBF40BFB04F4002D5ED0AAEB09
:107B5000050EA644B6453FF676AF002868D1BAF1C7
:107B6000040F43D1E14659F8040B20600434CC469D
:107B70004FF0040A26E0013A002323E011F8013C0B
:107B80006C2B30D111F8023C00206C2B0346C1D184
:107B90004FF0080BDA46D2E70CF1070929F0070C81
:107BA0000734FCE802AB24F0070435B10598204403
:107BB000B0423FF648AFC4E900AB083400234FF0B1
:107BC000080BDA4611F8010F002800F0BC80002BEA
:107BD0007FF46DAF2528F5D1013201234FF0040B5E
:107BE000EFE7184695E700200346A8E7BAF1080F2B
:107BF00040F09B800CF1070929F0070CFCE8029A81
:107C0000C4E9009A08344FF0080ADBE780B9BAF1FA
:107C1000040F02D10CF10409A8E7BAF1080F40F0F3
:107C200084800CF1070929F0070909F1080CE9E73C
:107C30000498E1460138049059F8040B009019E7C4
:107C40000298800748D5A4EB050E4FEA9E004FF03E
:107C5000010CBEF5007F1DD32749284A28484FF460
:107C60001F730CF0EEFE27480CF0EBFE4FF41F7173
:107C700022480CF0DDFE0F2F0ED8002D46D007F164
:107C8000400CEC440CF8200C0CF8102C039801303C
:107C9000039020E00F2F0CD91749184A184840F2DA
:107CA00081230CF0CEFE18480CF0CBFE40F281216F
:107CB000DEE7BDB107F1400EEE44C0B20EF8200C75
:107CC0000EF8102CBCF1000FE0D060F07F000EF831
:107CD000200C08F101080137C5F108000434CC4636
:107CE00005906FE7BCF1000F10D00136F3E700BF3D
:107CF000B85F030070910300AA900300C26A0300FA
:107D000027670300F06A0300116B03000198023635
:107D10000028E0D100980592CDE90631FFF70AFA74
:107D2000DDE90631059A0644D5E7444A4449454809
:107D300040F2C6230CF085FE514643480CF081FE0C
:107D400040F2C62194E7631BB3F5806F0CD33C4926
:107D50003A4A3C4840F2D2230CF073FE3B480CF008
:107D600070FE40F2D22183E71DB9A6F10804E018A5
:107D70006BE6019A28609B082B709DF80C30C2B10D
:107D8000EB7085F80280B8F1000F05D008A800223A
:107D9000C5F1010C97420ED1C5F101030DF1200987
:107DA0004FF0000A02930DF1300B574512D1601BC2
:107DB0004BE66B70E5E710F8013B190608D50CEBB4
:107DC000040EB64503F07F033FF63DAE04F8013BD9
:107DD0000132DFE7B8F1000F03D099F90020002A43
:107DE00017DB019BD3B11AF80B2004F8012B0022FA
:107DF000029B18191044B0423FF625AE99F80000D6
:107E000004F8010B0099039220460EF039F8039A0A
:107E100014440AF1010A09F10109C6E799F80020A2
:107E200055F822300093019B45F822300098FFF767
:107E300081F9421CDCE76FF00D0006E6C26A030020
:107E4000AA900300276703002B6B0300406B03001D
:107E50002DE9F04F97B000AF8946D7F880B0FA62AD
:107E60003B62044658B9A849A84AA94840F2993348
:107E70000CF0E7FD40F29931A4480CF0D9FDCBF3AA
:107E8000C00390F802A07B6141B9457800780AEB05
:107E9000800020444D4517D8A0EB0409E378FB612E
:107EA000BAF1000F02D01BF0010F16D1FB6953BBD2
:107EB000FB6A1BB13A6A4946204698474D46284618
:107EC0005C37BD46BDE8F08F461C3046FFF732F9FF
:107ED0000130304409F10109DCE7237862687A62F5
:107EE000FA6A9900B96104EB8301002A40F001812C
:107EF0004D460E4601EB0A094FF000084E454CD1A5
:107F000001EB0A0610E01BF0020FD1D023789A0093
:107F1000BA6162687A62FA6A04EB8301002A77D157
:107F20004D4601EB0A0690461BF0050F0CBF0223DD
:107F30000123FB62FB6906EB430A0BF00203BB6201
:107F40005645BCD016F8021B16F8013C54F8239095
:107F5000704B994502D3704B994536D37B69002B02
:107F600040D0786A0CF02EFD00283BD0E9468AB05C
:107F70006A466A4B53617B6AC2E906314FF400736B
:107F80001384674B42F8103F664800234FF41251A8
:107F900001F0ECFB023DCD46D2E716F8013BF96259
:107FA00054F82300FFF7C6F8D7F88430F96A013097
:107FB0004BB1D7F8883098453EBFD7F8843023F8C6
:107FC000180008F10108054498E77B6923B1786A35
:107FD0000CF0F8FC0028C9D11BF0010F05D1FB6A99
:107FE000ED1AADE7BB6A002BAAD04846FFF7A2F80E
:107FF000D7F8843053B1D7F8883098453FBFD7F8C9
:108000008420431C22F8183008F10108054497E742
:10801000BAF1000F73D01BF0040673D0D0460026CF
:1080200007F1480052463B61B9620DF029FFB96A79
:108030003B6901EB0A02BA62FA69F9695200FA6017
:10804000BA6A02EB41023A610BF00202BA60BA6A04
:1080500039698A4268D162787A621BF0020F324431
:108060000CBF4FEA580100211BF0010FD2B240F0C3
:10807000E4801BF0040F14BF404600207B61627057
:10808000A070E1703A6AB969FB6A20469847051EFC
:10809000FFF615AF7B6923707B6A6370FB69E37041
:1080A00041463A6AFB6A84F802A007F14800984703
:1080B000B0F10008C0F2F580BB693A6AA9EB0A0189
:1080C000C91AFB68C91AD7E90A0398470028C0F201
:1080D000EA80A84408EB00054FF0000B07F1380ACE
:1080E000B345C0F0AC8000213A6AFB6A0846984765
:1080F000E5E656464FF0000807F1380092E756468D
:10810000D04696E7B04694E7576B0300C26A030077
:1081100027670300B85F030070910300726B0300D0
:1081200004000001A8630300BA6A12F8021BBA62D5
:1081300012F8015C5D4A54F82500904202D35C4A73
:10814000904218D37A693AB1786A7B600CF03AFCB5
:108150007B6800287FF47BAFBA68002A4CD00F2ED2
:1081600040D95449544A554840F24D430CF069FCFB
:1081700040F24D4180E67A693AB1786A7B600CF052
:1081800021FC7B6800287FF462AF1BF0010F0BD04D
:108190000F2E27D94749484A484840F243430CF03C
:1081A00050FC40F2434167E61BF0040F3FF44FAF31
:1081B000B8F10F0F09D942493F4A404840F24643BF
:1081C0000CF03FFC40F2464156E608F1280207F168
:1081D000300008F1010102EB000808F8105C5FFABA
:1081E00081F834E706F1280207F13000711C1618F7
:1081F00006F8205CCEB22AE7B8F10F0F09D9304952
:108200002D4A2E484FF48A630CF01BFC4FF48A6110
:1082100032E608F1280207F1300C08F1010094441D
:1082200007F1580252FA80F008F102080CF8101C0D
:108230005FFA88F800F8105C09E700201EE71BF8D9
:108240000A3087F8373054F82390D7F884302BB3AE
:10825000D7F888309B4521D2D7F8843033F81B807B
:108260003A6AFB6A012107F13700984700281ADBB8
:108270000544B8F1000F06D14846FEF75BFF00F158
:1082800001081FFA88F83A6AFB6A4146484698474F
:10829000002808DB05440BF1010B21E74FF0000833
:1082A000DEE745460BE6054609E600BFB85F03007A
:1082B00070910300156C0300C26A03002767030076
:1082C000346C0300014B1860704700BF700500203C
:1082D00080B505460E46174698460AF07BFD0346D4
:1082E0000DF060FEDFF81890044649F80030424671
:1082F00030463946A84754F8090003F0A3FC00BFF4
:108300000800000038B50D460446202200210DF07B
:10831000C5FDEB68E361AB68A3612B6823626B6802
:1083200063620022A2622A6923B1591E194208BF62
:1083300042F0010222610122002104F12C000DF023
:10834000C1FC48B105490648064A2F230CF079FBC9
:1083500004482F210CF06CFB38BD00BF8B6C030070
:1083600027670300656C03002DE9F04F89B0CDE964
:108370000123436A00278B420446884605970797E6
:10838000BA4654D300F11406EFF31185202383F38A
:108390001288BFF36F8F3046A9460AF08DFF58B997
:1083A0004D4A4E494E4888230CF04BFB31464D4810
:1083B0000CF047FB882163E030460AF0A1FF079AE2
:1083C0002AB1394620460CF024FC0023079306A965
:1083D00020460CF043FB06994145834630D3226882
:1083E000236A13F8221021F0030103F8221003EB93
:1083F000820A2168424620460CF054FBE368206064
:10840000984218D04FF0000B30460AF063FF50B38B
:1084100089F31188BFF36F8F059929B1A2690AB159
:108420002046904700230593BBF1000FACD1504686
:1084300009B0BDE8F08F236943F008032361E1E749
:1084400018B120460CF048FBDEE7DDE901321343AA
:1084500039D003910DF064FC0399A0BB9DBB30465D
:108460000AF038FF78B91C4A1F491D4840F2311301
:108470000CF0E7FA31461D480CF0E3FA40F23111F6
:1084800015480CF0D5FA85F31188BFF36F8FDDE93D
:10849000012304F12C0009F09BF88346EFF31189C6
:1084A000202383F31288BFF36F8F30460AF004FF56
:1084B00000283FF475AF3046BBFA8BFB0AF020FF73
:1084C0004FEA5B1BA0E707AB05AA204627680CF024
:1084D00020FB834698E700BF946C0300C16C030047
:1084E00027670300D66C0300EC6C0300036D0300E8
:1084F0002DE9F0410446C36908460E46984704F149
:1085000014050746EFF31188202383F31288BFF385
:108510006F8F28460AF0D0FE68B91B4A1B491C48D9
:1085200088230CF08EFA29461A480CF08AFA882122
:1085300015480CF07DFA28460AF0E2FE337843F045
:108540000103337061683A4620460CF0ABFA606074
:1085500020460CF079FB28460AF0BCFE68B90A4AAE
:108560000D490B4840F231130CF06BFA29460B48C9
:108570000CF067FA40F23111DAE788F31188BFF3A3
:108580006F8FBDE8F08100BF946C0300C16C0300E5
:1085900027670300D66C0300EC6C0300036D030037
:1085A0002DE9F843044600F11407EFF31188202366
:1085B00083F31288BFF36F8F38460AF07DFE0546BD
:1085C00068B9354A3549364888230CF03AFA3946B5
:1085D00034480CF036FA88212F480CF029FA384636
:1085E0000AF08EFE2369A26813F0080F02D16368B7
:1085F0009A4200D9636A9B1A002B3FD0216A11F876
:10860000223013F0030001EB82093AD0022803D193
:1086100051F82260B60805D1D8071FD4E36948464F
:1086200098470646A168324620460CF03BFA314690
:10863000A06020460CF044FA38460AF04BFE10BB0E
:10864000154A1949164840F231130CF0FAF9394627
:1086500016480CF0F6F940F23111BDE743F0020381
:1086600001F822304846E369A56898472946024642
:1086700020460CF017FA0025A060DDE71D46A9464C
:10868000DAE70546FBE788F31188BFF36F8F002D0B
:108690008BD14846BDE8F883946C0300C16C03009D
:1086A00027670300D66C0300EC6C0300036D030026
:1086B0002DE9F0410446C36908460D46984704F188
:1086C00014060746EFF31188202383F31288BFF3C3
:1086D0006F8F30460AF0F0FD68B9284A28492948CA
:1086E00088230CF0AEF9314627480CF0AAF988210E
:1086F00022480CF09DF930460AF002FE2B786FF309
:1087000000032B7023699B0705D5E268236A03EBFE
:1087100082039D4222D12B786FF341032B70D4E961
:108720000231994204D13A4620460CF0BBF9A060D0
:10873000394620460CF0C4F930460AF0CBFD90B91A
:108740000E4A12490F4840F231130CF07AF93146C3
:108750000F480CF076F940F23111C9E72B6867F346
:108760009F032B60E8E788F31188BFF36F8F04F154
:108770002C00BDE8F04108F0ADBE00BF946C0300D2
:10878000C16C030027670300D66C0300EC6C030088
:10879000036D030070B5044600F11405EFF3118674
:1087A000202383F31288BFF36F8F28460AF084FDDD
:1087B00068B91B4A1B491C4888230CF042F929461A
:1087C0001A480CF03EF9882115480CF031F928467A
:1087D0000AF096FD2369A06813F0080F02D16368C0
:1087E000984213D9646A241A28460AF073FD78B9AE
:1087F0000B4A0F490C4840F231130CF022F929467C
:108800000C480CF01EF940F23111DDE71C1AEBE7C1
:1088100086F31188BFF36F8F201E18BF012070BD33
:10882000946C0300C16C030027670300D66C03003F
:10883000EC6C0300036D030008B50446EFF31183ED
:10884000202383F31288BFF36F8F06F035FE204696
:1088500003F0C4FD02480CF0DEF80CF071FDFCE7FB
:10886000186D03002DE9F84F04460846A38B19073D
:10887000154612D4022803F0070165D120460CF0FA
:108880000BFA88B10138042800F23781DFE810F0D4
:108890005C0035018200D400040101280CBF43F0C4
:1088A000100143F02001A183143420460AF012FD88
:1088B000002840F09D819A499A4A9B4840F2311322
:1088C0000CF0BFF82146B1E003F00702501F012869
:1088D0001ED80020062A2768C4E9000014D13A46B1
:1088E00003E0E08B0130E0831268002AF9D123F025
:1088F000070343F00202A28320460CF0CDF990B3A7
:1089000042F02002A2832EE023F007039AB2F2E79E
:10891000042A33D123F007039AB2A28320460CF035
:10892000BBF910B142F02002A283A38B03F0070928
:10893000894540F0EC80A18BCA0640F1508121F0BE
:108940001003A38301F00701D4F81880A38BB8F1BA
:10895000000FB9DA0022276823F00703C4E90022D8
:1089600043F00103A383A38B03F00709894540F07B
:10897000CF80002FDFD00026B24644E06B496C4A1E
:10898000694840F21B130CF05CF840F21B11684878
:108990000CF04EF849B16749654A63484FF4AB7330
:1089A0000CF04FF84FF4AB71F1E723684BB9624913
:1089B0005F4A5D4840F257130CF043F840F25711FC
:1089C000E5E723691E684EB95C49594A56484FF499
:1089D000AD730CF036F84FF4AD71D8E7A38B23F0EC
:1089E000070343F006039BB2A3830F4688464FF06C
:1089F0000609A268002A40F08D80002F40F08D808B
:108A0000002E98D0BA4643F0080304F1140BA38358
:108A100058460AF05FFC002840F09A804049414ADD
:108A2000414840F231130CF00CF8594644480CF020
:108A300008F840F23111ADE0022909D041493C4A21
:108A4000394840F25D130BF0FCFF40F25D119EE7E8
:108A5000E78B4FB13C49364A33484FF4AF730BF0C4
:108A6000F0FF4FF4AF7192E723695E684EB9334966
:108A70002F4A2D4840F261130BF0E3FF40F26111E1
:108A800085E7A38B23F0070343F004039BB2A38382
:108A9000B8464FF00409ACE7012909D02B49244A14
:108AA00021484FF4B2730BF0CCFF4FF4B2716EE774
:108AB00023684BB920491E4A1B4840F265130BF04E
:108AC000C0FF40F2651162E723699E684EB91B49F9
:108AD000174A15484FF4B4730BF0B3FF4FF4B47159
:108AE00055E7A38B23F0070343F005039BB2002750
:108AF000A383B8464FF005097BE70C490C4A0A48A6
:108B000040F26B130BF09DFF40F26B113FE7002723
:108B100000266EE74FF0010A75E7924673E700BF43
:108B2000EC6C0300946C030027670300AA90030019
:108B3000416D0300666D0300726D0300956D0300C7
:108B4000036D0300AC6D0300C26D0300D16D030023
:108B500085F31188BFF36F8FBAF1000F1CD177BB7B
:108B600016B126492046B047EFF31185202383F341
:108B70001288BFF36F8F58460AF09EFB38BB204A1D
:108B80002049214888230BF05CFF59461F480BF011
:108B900058FF88211A48FBE6A1680029DFD00D683C
:108BA0000029DCD0D1F804A043464A462046D047ED
:108BB0001DB12B6829461D46F2E72B46FAE73946D8
:108BC00043464A4620463F680CF092F8C7E75846AD
:108BD0000AF096FBA38B23F00803A383ABE68B0676
:108BE0007FF562AE21F02003A38301F0070145E683
:108BF00085F31188BFF36F8FBDE8F88F118C0200E9
:108C0000946C0300C16C030027670300D66C03005B
:108C1000F8B504460D4600F11406EFF31187202342
:108C200083F31288BFF36F8F30460AF045FB68B9B3
:108C30000C4A0D490D4888230BF003FF0C483146C0
:108C40000BF0FFFE074888210BF0F2FE30460AF0D9
:108C500057FBA5613A4620460121BDE8F840FFF7E1
:108C600001BE00BF946C0300C16C030027670300C2
:108C7000D66C03002DE9F04704460F460CF028F8A7
:108C8000051E68DB04F11409EFF3118A202383F336
:108C90001288BFF36F8F48460AF00EFB804660B91A
:108CA000384A3949394888230BF0CBFE49463848C1
:108CB0000BF0C7FE8821334842E048460AF020FB0B
:108CC000E38BA68B4FF6FF72934206F0070645D062
:108CD000022E15D10133E383354648460AF0FAFAED
:108CE000002841D1274A2B49284840F231130BF084
:108CF000A8FE494628480BF0A4FE40F23111DAE7FD
:108D0000062E13D8DFE806F0092D12120904090017
:108D10006FF085054FF00008DFE700233B606368D4
:108D200083B9C4E9007786B13546F3E71B49174894
:108D30001B4A4FF4E4730BF084FE19484FF4E471BE
:108D40000BF076FE1F606760EDE752460221204679
:108D5000FFF788FD35462846BDE8F0876FF00A0525
:108D6000D8E76FF00405D5E78AF31188BFF36F8F5A
:108D7000B8F1000FEFD000233246394620460BF001
:108D8000B7FFE8E7946C0300C16C0300276703009A
:108D9000D66C0300EC6C0300036D0300D16D03007F
:108DA000416D0300F8B5054600F11406EFF3118795
:108DB000202383F31288BFF36F8F30460AF07CFACA
:108DC00060B9264A2649274888230BF03AFE3146E7
:108DD00025480BF036FE882120482BE030460AF06B
:108DE0008FFAAC8B04F00704022C17D0012C0CBFB7
:108DF0006FF004046FF0850430460AF06BFA38BB5C
:108E0000164A1A49174840F231130BF01AFE314640
:108E100017480BF016FE40F23111DDE7EB8B5BB922
:108E200014491048144A40F2EF130BF00AFE12489E
:108E300040F2EF110BF0FCFD013B9BB2EB83002BEA
:108E4000DAD13A4621462846FFF70CFD2046F8BD08
:108E500087F31188BFF36F8FF8E700BF946C0300AE
:108E6000C16C030027670300D66C0300EC6C0300A1
:108E7000036D0300E76D0300416D03002DE9F04130
:108E80000F460546002850D000294ED000F11406A8
:108E9000EFF31188202383F31288BFF36F8F3046DE
:108EA0000AF00AFA60B9224A2249234888230BF0C3
:108EB000C8FD314621480BF0C4FD88211C4817E04D
:108EC00030460AF01DFA39462846AC8B0BF0C9FE35
:108ED00080B104F00704231F022B0DD9184916484E
:108EE000184A40F22D230BF0ACFD164840F22D211C
:108EF0000BF09EFD6FF0770430460AF0EBF968B98D
:108F00000B4A11490C4840F231130BF09AFD3146DF
:108F10000E480BF096FD40F23111CFE788F311882F
:108F2000BFF36F8F2046BDE8F0816FF01504F9E7BD
:108F3000946C0300C16C030027670300D66C030028
:108F4000F56D0300416D0300EC6C0300036D03003D
:108F500008B54268816002F00302032A034602D08A
:108F60002AB1002000E0006800225A6008BD0549CF
:108F70000548064A45230BF064FD044845210BF0E3
:108F800057FD00BFAA900300276703006C6E030023
:108F90002DE9F34106460F4615464FF000082A46D4
:108FA00001A930460BF0F6FE044640B102463946B0
:108FB00001980CF065FF2D1BA0442744EFD14246D9
:108FC000311D30460BF004FF48B107490748084AF5
:108FD00048230BF036FD064848210BF029FD40469A
:108FE00002B0BDE8F08100BF8B6C0300276703006F
:108FF000926E03002DE9F34107460E4615464FF0E9
:1090000000082A4601A938460BF0D3FE044648B1B1
:109010002EB10246019930460CF032FF26442D1B3A
:10902000A044EED1424607F10A0138460BF0D0FECB
:1090300048B107490748084A63230BF002FD064878
:1090400063210BF0F5FC404602B0BDE8F08100BFA3
:109050008B6C030027670300926E030030B5104944
:10906000104889B000220CF0D2FE0F4D0F490022AB
:109070000023CDE9062300240E23CDE90334CDE9F6
:1090800001440B4B00944FF40062284608F022FF85
:109090000849284608F08CFE204609B030BD00BFC4
:1090A00001920200B00D002008090020402E00208F
:1090B00055950200BD6E03002DE9F047DFF858809A
:1090C000044607464FF0010914B93846BDE8F08759
:1090D00094FAA4F5B5FA85F509FA05F32E0108EB23
:1090E00005156FEA030A24EA03042B7B002BEBD05F
:1090F00058F806301B694BB9464404227368284669
:10910000196807EA0A070BF0B1FEDDE72846984721
:109110000028D9D1F0E700BF206403002DE9F04713
:10912000DFF8BC902F4CA9EB04038F2B80460F4631
:109130000BD92D492D4A2E484FF4A7730BF081FC13
:109140004FF4A77129480BF073FC2A480BF06EFE10
:10915000064678B300252846BDE8F087237B83B117
:109160002368DB680BB120469847636883F806A044
:1091700023681B69B3B963680422196820460BF0A1
:1091800075FE013610344C4518D91B49174A18484A
:109190004FF4AD730BF055FC18480BF052FC4FF434
:1091A000AD71CFE7204698470028E4D00AFA06F3CD
:1091B0001D43E6E705464FF0010AE4E7CED3B8F1D8
:1091C000000FC8D0002DC5D02846FFF775FF054613
:1091D000002FF7D000214FF4A47009F041FDF1E712
:1091E0003064030020640300F26E0300C56E0300C8
:1091F000276703006C120020226F0300436F0300F7
:10920000014808F067B900BF64070020014B53F81C
:10921000200070476C64030008B5034608462BB174
:10922000044A136000F0BEFD002008BD6FF0150079
:10923000FBE700BF7405002010B5044C237813B978
:10924000034808F047F90123237010BD8D27002043
:109250006407002010B504460B480BF0E7FD5CB135
:10926000BFF35B8F094B53E8001F013943E800123D
:10927000002AF8D1BFF35B8F05480CF0D4FD0548F8
:10928000BDE8104008F026B96412002068120020E2
:10929000B00D0020640700200020064BBFF35B8F59
:1092A000014653E8000F43E80012002AF9D1BFF34A
:1092B0005B8F70476412002070B5FFF7EDFF104C14
:1092C000104E0546B44219D90F49104A104840F2D1
:1092D0000E230BF0B6FB0F480BF0B3FB0B4840F22C
:1092E0000E210BF0A5FB63685B792BB123685B68EB
:1092F00013B12946204698471034E3E7F3D370BDF5
:109300002064030030640300226F0300C56E030075
:1093100027670300436F030010B5044C044920463F
:10932000FEF7F0FF034B1C6010BD00BF900600204D
:109330005864030058120020154A1648002310B53F
:109340001370154A1360154A4FF400411360FFF77C
:1093500063FFFFF7E1FF124B124918468B4215D904
:109360001149124A124840F229130BF06AFB1148C6
:109370000BF067FB0D4840F229110BF059FB1A1A4C
:109380005C681211013222711033E7E7F7D310BD88
:109390008E270020294E030064120020681200204E
:1093A0002064030030640300226F0300C56E0300D5
:1093B00027670300436F0300014600220148002392
:1093C000FEF7D2BF900600200148FFF7E9B800BFC2
:1093D00090060020024B01461868FFF769B900BFEC
:1093E000581200200148FFF7D5B900BF90060020B1
:1093F00070B5314B187800285DD0FFF7E5FF0546C2
:10940000002844D12D4B2E4C1B68002B19DD0CF08D
:10941000FCFC4FF47A72A0FB020302FB0131C30B88
:10942000D4E9002043EA41439B1A4FEAD13140F28C
:10943000E93261EB0001934271F1000101D3FFF7C2
:109440003BFFD4E9003213F57A7342F10002C4E91C
:109450000032BDE87040FFF7C5BF63685B7923B198
:10946000236829461B68204698471034B44211D916
:109470001449154A154840F202230BF0E2FA144849
:109480000BF0DFFA104840F202210BF0D1FA114C38
:10949000114EEBE7E1D32846FFF79CFFBFF35B8F4C
:1094A0000E4B53E8001F013943E80012002AF8D19F
:1094B000BFF35B8FA6E770BD8D27002064120020EC
:1094C000A80D0020226F0300C56E0300276703006C
:1094D000436F03002064030030640300681200201F
:1094E00070B5154D297829BB0120FFF717FE134CE5
:1094F000134EB44217D91349134A144840F2C71304
:109500000BF09FFA12480BF09CFA0F4840F2C7117B
:109510000BF08EFA63685B791BB1236820469B6869
:1095200098471034E5E7F5D3FFF762FF0028FBD139
:1095300001232B7070BD00BF8E2700202064030024
:1095400030640300226F0300C56E03002767030029
:10955000436F03002DE9F047304B314FFB1A1B09D5
:109560000BD13049304A314840F2AB330BF069FA45
:1095700040F2AB312C480BF05BFA00210846FFF7B4
:10958000CDFD044650B340F267684FF000090CF07F
:1095900009FD274B274A1B58136033B1264B1B6824
:1095A000092B02DD254807F095FFDFF890A0002584
:1095B00044B12046FFF780FD044618B94FF0FF384C
:1095C0004FF0FF39FFF714FF064628B95DB9424650
:1095D0004B46504607F0FCFF3546E9E74FF0FF38B1
:1095E0004FF0FF39D3E70D4D08E0F0D22B689B69AF
:1095F0001BB100221146284698471035BD42F4D9C8
:109600000F49094A094840F29F330BF01AFA0D48F6
:109610000BF017FA40F29F31ACE700BF2064030063
:1096200030640300626F0300C56E03002767030008
:10963000080000006012002068120020640700206B
:10964000226F0300436F030013B52C480BF0EEFBB1
:109650002B4B1B78002B35D0EFF31184202383F3A1
:109660001288BFF36F8F274809F026FE68B9264A93
:109670002649274888230BF0E4F9224925480BF0B6
:10968000E0F9882120480BF0D3F91E4809F038FE94
:10969000FFF7AEFE1B4809F01DFE68B91A4A1E49C5
:1096A0001B4840F231130BF0CCF916491B480BF064
:1096B000C8F940F23111E5E784F31188BFF36F8FE9
:1096C00002B010BD164B1B68002BF9D050B9002218
:1096D0000023CDE9002313484FF4004200230AF091
:1096E0004FF9EDE70928EBD10E480CF09CFB0E4832
:1096F00002B0BDE8104007F0EDBE00BF68120020C8
:109700008E2700205C120020946C0300C16C0300C3
:1097100027670300D66C0300EC6C0300036D0300A5
:1097200060120020B00D00206407002010B5064B29
:109730001B68044698472146A0600448FEF7D8FEFF
:10974000BDE81040FFF780BF7405002090060020A0
:10975000044A054B9B1AB1EBD30F34BF52F83100CA
:1097600000207047A0630300206403002DE9F04F40
:109770008FB004AFC1F34A28B8600D4691467B60B4
:109780000C0DB8F1000F68D0002607F114034FF05C
:10979000040B4FF00A0AC7F80C80C7E907667E621F
:1097A0000193CDF808B0CDF800A007F11C03F968CB
:1097B00032464846FEF74CFBB0F5006F03461CD31B
:1097C0006C468AB0D9F8041004AB2C48C3E90501F3
:1097D00040F2FF71D9611A464FF400711984284B89
:1097E00042F8103F274833464FF41251FFF7BEFFAF
:1097F000A5462C37BD46BDE8F08FC0F30A0804F13A
:109800001700184420F0070080083B60FFF7D4FDE4
:1098100068F35325044640B33B681B4AC7E9083642
:1098200000F1100107F11403F961CDE900A3CDF8AF
:1098300008B0F96807F11C034846FEF709FB002849
:1098400013DA12491248134A4FF4A3730BF0F9F8D4
:1098500010484FF4A3710BF0EBF804F1170020F05F
:1098600007008008FFF7A8FD044668F353257B68CE
:10987000B9682A4620460BF018FBBAE78B6F030045
:1098800004000001C86303007F4E0300F76F03006C
:1098900027670300CA6F03002DE9F04F87B0DDE9A9
:1098A0001279DDE9106A044603919346984627B37E
:1098B000CDF800903B46524610210020CDF8149080
:1098C000FEF7AAF8051E0BDA2649274A274840F278
:1098D00065130BF0B6F840F2651123480BF0A8F8B9
:1098E000B5F5006F0ADB224A224840F2FF730221DD
:1098F00007B0BDE8F04F0BF031BB3D4606F1170055
:10990000284420F0070004F007048008FFF754FD06
:109910000BF0070BE40044EA8B1444EA452444EAC4
:1099200006540646A0B19FB1CDF800903B46524682
:1099300029461030FEF770F8002809DA09490A4A6A
:109940000A484FF4C4730BF07CF84FF4C471C4E7B9
:10995000039943462246304607B0BDE8F04F0BF06E
:10996000A4BA00BFF66F0300CA6F030027670300A5
:1099700000700300C8630300406820B1034BC01AA5
:1099800040F3CF0070474FF0FF307047A0630300F3
:109990000EB403B503AB014653F8042B04480193FE
:1099A00002F0AEFC02B05DF804EB03B0704700BFFC
:1099B000D1990200CA0605D48B064CBF024903495F
:1099C000FFF7E6BF704700BF9389030038700300BC
:1099D00038B54B681A68CB689A4205460C4602D1E6
:1099E00008460BF0DFFA6368BFF35B8F53E8002F84
:1099F000511C43E800100028F8D1BFF35B8FA36827
:109A00009D5463681A68E3689A4209D90549064873
:109A1000064A72230BF015F8044872210BF008F87F
:109A2000002038BD6A700300276703003B70030005
:109A30002DE9F04F89B09B46149B06939DF84CA0EE
:109A4000159B0593169B179E049304460D4690465E
:109A5000BAF1000F00F0AD80BAF1040F0BD9A349A1
:109A6000A34AA44840F246230AF0EBFF40F2462105
:109A70009F480AF0DDFF06F4807307930BF0F4F9BA
:109A800006F00209024600283FD09B492046FFF716
:109A90007FFF0746B9F1000F08D016F0440F36D10A
:109AA00096492A462046FFF773FF074406F0010354
:109AB00053B1934B934953F82A20934B2046002AE5
:109AC00008BF1A46FFF764FF06F48073002B4AD0E4
:109AD00006F00803002B64D1B8F1000F67D08B4962
:109AE00042462046FFF754FF0546069B3D44002BA7
:109AF0006ED1049B002B40F08380F30700F1F080CF
:109B000031462046FFF756FFE4E00746C2E7804BA8
:109B100018680028C9D07F4B4FF47A791B68B5FBD1
:109B2000F3F54FF46163B5FBF0F100FB115509FB50
:109B300005F54FF03C0CB1FBF3F203FB1211B5FB42
:109B4000F0FEB1FBFCF300FB1E550CFB131109FBEF
:109B500005F50091B5FBF0F56F49CDE901E520462B
:109B6000FFF716FFA1E706F00803EBB16B4B6C495A
:109B700053F82A202046FFF70BFF0546B8F1000FE7
:109B800005D0624942462046FFF702FF0544BBF17B
:109B9000000FAAD063495A462046FFF7F9FE054454
:109BA000A3E74FF0000BE1E706F00805E6E74546BE
:109BB0009BE7BBF1010F069B06D1DBB9049B002B91
:109BC00000F0888000251BE0002BF7D0564812E0FB
:109BD0005648069B564922460AF0C3FE00280CDA76
:109BE0005449434A43484FF428730AF02AFF4FF47C
:109BF00028713DE74D485546EBE7049B002B65D0A7
:109C0000DFF83481DFF83491049F3146102F20466D
:109C100028BF1027FFF7CEFE4FF0000B5D4542DC5A
:109C2000059B49461A782046FFF7B2FE4FF0010B1C
:109C30001BF0070F03D141462046FFF7A9FE5F4501
:109C400038D9059B494613F80B202046FFF7A0FEA4
:109C50000BF1010BBBF1100FEAD1394920464FF04F
:109C6000000BFFF795FE5A46059B9A5CA2F1200176
:109C70005F2928BF2E2233492046FFF789FE0BF1CA
:109C8000010BBBF1100F1AD01BF0070F03D1414697
:109C90002046FFF77DFE5F455A46E5D841462046FF
:109CA000FFF776FEEBE741462046FFF771FE0BF12A
:109CB000010BB3E724492046FFF76AFEC8E7059B7E
:109CC0003B440593049BDB1B04939DD1BAF1000F29
:109CD0007FF413AF204609B0BDE8F04F0BF062B936
:109CE000094A08492046FFF753FE09E79F70030021
:109CF0003B70030027670300AA700300AE700300E7
:109D00007C640300066903009A700300D3700300AB
:109D10007412002070120020B770030090640300DA
:109D2000D7700300DD700300BF4F0300D19902001C
:109D300001C30200E2700300F3700300EB70030044
:109D4000F5700300F7700300F170030073B542F281
:109D50000F738B4228BF0B4605680F4A0446052146
:109D600068460AF091F963680C495B6806460B2265
:109D700028460BF009F963683246694628465B6855
:109D80000BF002F9636806495B681B2228460BF05A
:109D9000FBF802B070BD00BFFA7C0300167103002F
:109DA000FA700300074A00210123904206D8064AB0
:109DB00001B901231360054B1860704740085B0030
:109DC0000121F2E740420F007012002074120020BF
:109DD000014B01221A7070478F270020014B002091
:109DE000196070478C1200200148FFF7AFBF00BF19
:109DF000C064030010B5064B18680C46FFF706FA5E
:109E000021460346BDE8104002480F22184700BF14
:109E10008C120020C0640300F8B5094D094B0A4EAE
:109E2000D5E9004701221A700CB92C60F8BD214613
:109E300030463A4600F01EF8241A0644F4E700BF04
:109E400080120020902700209127002010B9074B96
:109E500018707047064B1B781BB141F288300BF02D
:109E6000B0BEA420002108F0FBBE00BF8F27002059
:109E7000902700202DE9F047DFF878901E4F8046AC
:109E80000E46042499F80050A5B90BF08DFE324619
:109E900082464146284606F0CDFB054650460BF06B
:109EA0008BFEE5B101233B7099F8003073B9304661
:109EB000BDE8F08732464146002006F0BBFB054670
:109EC000EFE72046FFF7C2FF651E2C46002006F094
:109ED0003BFC0028EBD03B78002BF2D1E7E73B7846
:109EE000002BE4D0013C2046FFF7B0FF3B78002B6D
:109EF000C8D1DCE7902700208F270020014B0360AA
:109F000000207047D064030010B504460BF068FAD7
:109F100010F1780F00D050B9054A20460BF092F8A6
:109F2000D2F8C43023EA0003C2F8C430002010BDC8
:109F3000901200202DE9F0471C4CDFF87480DFF808
:109F4000749005460E461746444529D91A491B4ABE
:109F50001B484FF4BB630AF074FD1A480AF071FD08
:109F600016484FF4BB610AF063FD6268D9F82430EB
:109F70009A4213D3A3698BB1A9889078C9B2884259
:109F800005D13A4631462846BDE8F0471847527990
:109F9000012A03D13A463146284698472434D3E76C
:109FA000E3D36FF08500BDE8F08700BF40080020D4
:109FB0006408002090120020847103005271030095
:109FC00027670300436F03002DE9F041154B164F3F
:109FD0005E6A164BBB421FD91549164A164840F215
:109FE000BB530AF02EFD15480AF02BFD114840F234
:109FF000BB510AF01DFD5C68B4420BD31D694DB125
:10A0000094F802C08488E4B2A44503D12B46BDE88D
:10A01000F04118472433DDE7EDD36FF08500BDE84C
:10A02000F08100BF9012002064080020400800204A
:10A03000847103005271030027670300436F03001C
:10A04000024B00221A605A60704700BF4B13002079
:10A050002DE9F041134CDFF8508005460E461746B7
:10A0600044451AD91149124A12484FF4C1630AF003
:10A07000E8FC11480AF0E5FC0D484FF4C1610AF014
:10A08000D7FC63690BB92434EAE73A4631462846DF
:10A0900098470028F7D1BDE8F081F2D36FF0850032
:10A0A000F9E700BF40080020640800208471030025
:10A0B0005271030027670300436F0300430670B526
:10A0C00020D0134B134CA3421ED91349134A1448F2
:10A0D0004FF47D730AF0B5FC12480AF0B2FC0F4849
:10A0E0004FF47D710AF0A4FC196A1E7F0022043926
:10A0F000D5B2AE4201D82433E5E7013211F832502F
:10A100008542F5D1012001E0EED3002070BD00BFF3
:10A11000400800206408002084710300527103008D
:10A1200027670300436F0300F7B58488E4B2204635
:10A130000F468DF80740FFF7C1FF054680B114F0C8
:10A140007F0F0E4E02D096F8BA30ABB1204657B111
:10A1500002F0C0FEF3691BB10DF10701082098471A
:10A16000284603B0F0BD02F0E7FEF369002BF7D0FC
:10A170000DF107010920F2E71D46F1E790120020DA
:10A1800008B509480378C3F341130A3350F8233064
:10A190003BB100F1080200F110019847C043C00F25
:10A1A00008BD1846FCE700BF9012002004282DE9E6
:10A1B000F14FDFF8D49004460F461AD0012831D170
:10A1C000DFF8C88098F8B93063B300F069FE304D0D
:10A1D0004D4537D92F49304A304840F2C2430AF042
:10A1E00030FC2F480AF02DFC40F2C2412A480AF008
:10A1F0001FFCFFF725FFE3E70BEBC6060AF1010A98
:10A2000030790BF0EDF8024630790AF01BFFD8F8F0
:10A21000C430002A23EA0003C8F8C43017DA002348
:10A2200088F8B9301A4D4D4520D91A491A4A1B48A9
:10A2300040F2EE430AF005FC19480AF002FC40F235
:10A24000EE41D3E7EBD2D5F820B04FF0000A2B7FD8
:10A250005FFA8AF6B342CFD82435B9E7EB681BB171
:10A260003A462146284698472435DCE7F6D3074B83
:10A270001B6A2BB13946204601B0BDE8F04F1847A4
:10A2800001B0BDE8F08F00BF6408002090120020EC
:10A290004008002084710300527103002767030007
:10A2A000436F030073B586788DF8006003794279B7
:10A2B0001C4C43EA0223ADF80230C378304603F069
:10A2C00003038DF804300AF0BDFED4F8C430184200
:10A2D00005460BD0304600F0C5FD3046FFF714FEB2
:10A2E0000BF01EFD10B9962008F0FEFC684602F047
:10A2F000C3FD10F1780F03D010B1002002B070BD83
:10A300009DF8000002F054FE10F1780F01D00028F3
:10A31000F3D1D4F8C43001202B4384F8B900C4F839
:10A32000C430EBE7901200202DE9F047A84EB36946
:10A3300004460F461546FBB9237803F01F03012B93
:10A3400000F09E80022B00F0068133BB94F90000E0
:10A350002A686178002834DA062912D008292BD01F
:10A36000D9B901231370517096F8C3305B0043F0E4
:10A3700001031370022328E198470028DCD1002054
:10A380000DE06288100A011F0129844605D90728BB
:10A3900003D8716AD2B20C781CB96FF01500BDE811
:10A3A000F0874E78664503D19A4200F00981013367
:10A3B0002144F0E70B7808E196F8BA3013700123D6
:10A3C00003E101390829E8D801A353F821F000BFBF
:10A3D0006BA402009BA3020079A402009BA30200CD
:10A3E000F5A302009BA302009BA302009BA3020013
:10A3F00003A402006088C0B202F0E4FC0028BED0D2
:10A40000CBE76388756A63BBFFF71AFE638886F83B
:10A41000BA30F369002BB2D06E4903209847AEE7FB
:10A420006B78042B10D0052B11D0022B04D16F793F
:10A430006388BB4208BF01202B781D442B78002B7A
:10A44000EED10028A9D0DFE795F80380F4E7638810
:10A45000BB42F1D1B8F1000FEED12846FFF722FF41
:10A46000EAE7FF270020B846E8E76388012B94D18C
:10A47000002386F8C33082E76388012B8DD1F8E78B
:10A4800096F8BA30D5F800C0002B86D0A388756A3C
:10A490005FFA83FE2A46107800283FF47EAF517899
:10A4A000022904D192F80480F04500F2958002441C
:10A4B000F1E78CF800208CF8012039605FE7154443
:10A4C00096E00B2A7FF469AF00274FF0FF08C146E2
:10A4D000BA4606E06B78042B0FD0052B21D02B78E1
:10A4E0001D442B78002BF5D1F36913B15146072099
:10A4F0009847002F7FF443AF4FE795F80280A38879
:10A5000095F803909845EAD163889945E7D1B8F169
:10A51000070F1DD806EB0803AA4683F8BB90012756
:10A52000DDE7A3884345DAD16388DBB24B450AD027
:10A53000AF78384600F096FC3846FFF7E5FCB0FAF5
:10A5400080F77F09CBE72846FFF7ACFE0746C6E752
:10A55000AA460027C3E794F900206378002A19DA95
:10A56000002B7FF41AAFA4882D68E4B22046FFF7D1
:10A57000A5FD00283FF411AF630604D096F8BA3069
:10A58000002B3FF40AAF2946204602F0F5FC0023D9
:10A590006B70EFE6012B08D0032B7FF4FEAE6388CF
:10A5A000002B7FF4FAAE012103E0618800297FF4DB
:10A5B000F4AE2046FFF7B8FD00287FF4E0AEECE6ED
:10A5C000022829607FF4F6AE4B883B60D7E600BFD7
:10A5D000901200204A13002094F9000062780028AD
:10A5E000BFF66FAF002A3FF464AF0A2A7FF4D5AEFE
:10A5F0002A78002A3FF4D1AE697804297FF45FAF4E
:10A60000A9788B427FF45BAF072B96BF9B19002381
:10A6100093F8BB308CF80030D1E600BF13B5164C70
:10A62000237DF3B9E268A168019201AB80200AF0B2
:10A6300017FD019AA3681344A360E3689B1AE360C3
:10A640006BB962B12369E2889A4208DD94F8C820A8
:10A6500093FBF2F102FB11330BB90123237502B016
:10A6600010BD00231A4619468020237502B0BDE8AC
:10A67000104002F0C7BC00BF9012002030B585B07A
:10A68000002302460D460193002858D1002935D1F8
:10A6900008220B460DEB02010AF0BBFE002804DA8B
:10A6A000802002F017FC05B030BD304C029A2260C9
:10A6B000039A626004F13802A2609DF90820BDF897
:10A6C0000E302575002AC4E903550ADB802B04D916
:10A6D000802002F0FFFB0020E3E713B1C4E903335D
:10A6E000E1E7FFF74DFD0028DAD0E28823699A42BE
:10A6F000D4BFE260E360FFF791FFD4E71B4CD4E9DD
:10A700000215002D01AB04DC0AF083FE0028CADA32
:10A71000C6E72A460AF07DFE0028D9DB019AA36825
:10A720001344A360E3689B1AE360002BBBD104F1E0
:10A730003803A360FFF724FD0028DCD1B0E78028B0
:10A7400007D10A4BDA68002AD5D11B7D002BD2D164
:10A75000A9E707490748084A4FF4C5730AF071F999
:10A7600005484FF4C5710AF063F900BF901200204C
:10A77000AA9003002767030052710300054B064AA5
:10A780009A62064ADA62064A1A63064A58629A616F
:10A79000002070479012002029A30200C99F0200E8
:10A7A00051A00200359F02002DE9F34104464F4DB0
:10A7B0004F484FF0FF334FF0FF3206F083FB95F820
:10A7C000B830002B40F08C806B6A83B149482C6212
:10A7D000E8616E6A02F058FD02F0C2FA041E10DA57
:10A7E000434806F03FFC204602B0BDE8F08100F08F
:10A7F000D5F8FFF7C3FF6B6A002BE7D14FF0FF34AA
:10A80000EEE700F06FFB041EEADB7378012B6AD1E0
:10A81000F379002B67D00026684685F8C830ADF87C
:10A8200002308DF804608DF8006002F025FB041EF4
:10A83000D6DB802768468DF8007002F01DFB041EF1
:10A84000CEDB2D49304602F00BFD041EC8DB2A4941
:10A85000384602F005FD041EC2DB284CDFF8A0805C
:10A86000444521D92749284A28484FF4C3630AF0B0
:10A87000E8F827480AF0E5F823484FF4C3610AF0E6
:10A88000D7F8276A0026227FF3B29A4201D82434EF
:10A89000E6E707EBC30257F83310107902F0E0FC4B
:10A8A00001360028EFD0A9E7EBD3002002F080FBAF
:10A8B000041E95DBD5F8C430802043F00103C5F8B1
:10A8C000C43002F075FB041E8ADBD5F8C43043F4B3
:10A8D0008033C5F8C430012385F8B83000247FE701
:10A8E0006FF077047CE76FF0150479E79012002091
:10A8F00040070020ADA102007DA602004008002014
:10A90000640800208471030052710300276703006C
:10A91000436F030030B51F4B8BB005AA03F1100540
:10A9200018685968144603C40833AB422246F7D16D
:10A930001B7823701022002101A80BF0AFFA12221D
:10A94000002115480BF0AAFA102101A80AF0F9FD20
:10A9500000281BDD0828B8BF0820093801AB0E49C4
:10A960001A18002012F8013F0AAC04EB131403F08C
:10A970000F0328336B44013014F8144C13F8143CC3
:10A980000C7008284B7001F10201EBD102480BB0AA
:10A9900030BD00BFA7710300A22700202DE9F04FB2
:10A9A000894B93F800B087B0BBF1000F03D0874804
:10A9B00007B0BDE8F08F854C00264FF0011AB04675
:10A9C0003546B14623783BB9814B02349C42F3D1E2
:10A9D0007D4A01231370EAE76378052B2DD8DFE861
:10A9E00013F0AC000600F000AC002F00570040232D
:10A9F00004A88DF810B0ADF812308DF814B002F044
:10AA00000FFAB8B1082304A8ADF8123002F008FA22
:10AA100080B17049704A7148ADF812B040F28F139E
:10AA20000AF00FF86E480AF00CF840F28F116A48ED
:10AA300009F0FEFFBDF81230E37123781C44C1E732
:10AA4000E378002BF9D1A378EBB9664D03E06B688E
:10AA50009C4213D02435644B9D420CD963495E4A15
:10AA60005E484FF49B7309F0ECFF614809F0E9FF81
:10AA70004FF49B71DBE7EAD3002099E7AB6813B191
:10AA800041462046984708F101085FFA88F8D4E764
:10AA9000002DF1D000222B7F9A42EDD2296AA078B6
:10AAA00001EBC2010B79984201D00132F3E7012793
:10AAB000E07800F003008DF81400207994F805C0C8
:10AAC00040EA0C20ADF8120094F902000028FBB215
:10AAD00028DA07F110004FF0010C0CFA00F010EA30
:10AAE0000A0F26D143F080008DF8100004A8CDE9AC
:10AAF0000213019202F094F9DDE90121039BC0B930
:10AB00009DF81020A27012F0800F18BF10330A7148
:10AB100018BFDBB24FF0010214BF9A40BA404AEAB4
:10AB2000020A8AE70120B84010EA0A0F01D118464C
:10AB3000DAE70137102FBBD1B7E7032E1AD1FFF7A1
:10AB4000E9FE074650B1FCF7F5FA024630B110288D
:10AB5000A8BF10223946A01C0BF092F923786FF0A1
:10AB60000200E118001B04EB5303C84213D5013661
:10AB7000F6B262E7002EF1D1B9F1000F3FF47CAFDD
:10AB8000A4EB090389F80230C3F3072389F80330E3
:10AB900089F80480EBE71A78203A5E2A0AD9154929
:10ABA0000D4A0E48CB2309F04CFF134809F049FF2A
:10ABB000CB213CE701F801BC13F8012901F8022D73
:10ABC000D3E7A14639E700BFA1270020980700205E
:10ABD0003F080020EE710300B871030027670300EF
:10ABE000F77103004008002064080020847103000E
:10ABF000436F03001E7203005572030010B5094B2A
:10AC000000211A461C78844204D15C6814B102EB1E
:10AC1000811010BD0131042903F14003F2D100205D
:10AC2000F7E700BF5C1300202DE9F34150F8283C02
:10AC300010F82C6C103304460AD1036950F8202C0C
:10AC4000980736D5D2B9590715D5002344F8283CC2
:10AC500054F8283C10330BD054E9077554F8148C81
:10AC60000BF05EF800284FD02E4821460BF048F834
:10AC700002B0BDE8F08143F00403236154F8241CC2
:10AC800001AB30460AF0ECF910B16FF01503DDE7C7
:10AC9000019A54F8243C134444F8243C54F8203CD2
:10ACA0009B1A44F8203C54F81C3C134444F81C3CC8
:10ACB000CEE754F8241C01AB304602F02DFA0028F0
:10ACC000E3D1019D54F8243C2B4444F8243C54F82F
:10ACD000203C5B1B44F8203C54F81C3C2B4444F8BB
:10ACE0001C3C002DB1D0304602F0D4FAB5FBF0F395
:10ACF00003FB1055002DA8D154F8203C002BA4D004
:10AD0000304602F05FFAA3E744F8180CA4F11000F3
:10AD100006F0E0FB002DABD0424639463046A8474E
:10AD2000A6E700BFE80D00204B1E012B73B50646B9
:10AD30000D460FD8FFF762FF044668B9012D09D10F
:10AD400001AB01220DF10301304602F0E5F9019B50
:10AD5000002BF5D102B070BD0AF0E2FF04F12C0126
:10AD600008B1012D05D1084602B0BDE87040FFF7DB
:10AD70005BBF034802B0BDE870400AF0C1BF00BF2E
:10AD8000E80D00202DE9F74F06460191154698463B
:10AD90000AF0AEF9044600285BD1EFF3118A2023B4
:10ADA00083F31288BFF36F8FDFF8ACB0002200236B
:10ADB000584606F00DFC70B9DFF8A090A70109EB2A
:10ADC0008414636813F1100F14D10193584606F0F0
:10ADD00081FB019B06E00134042C0BF1400BE5D113
:10ADE0006FF00B038AF31188BFF36F8F184603B01F
:10ADF000BDE8F08F019B2061C4E902350C9B6361C3
:10AE00000D9BA36130466FF00F0309F80760C4F88B
:10AE10003C80636002F03EFA58B1304602F03AFAE4
:10AE2000B5FBF0F303FB10551DB1E36B43F00403D6
:10AE3000E36318F0020F07D007F12C0108484944DA
:10AE40000AF05EFF0023CDE7304602F0BBF903466F
:10AE5000C8E76FF00F03C9E7781300205C130020E8
:10AE6000E80D002010B5EFF31184202383F312883E
:10AE7000BFF36F8FFFF7C2FE50B14368103307D1A5
:10AE80006FF08B03436000F12C0104480AF038FF97
:10AE900084F31188BFF36F8F10BD00BFE80D002051
:10AEA000F8B50E4C04252027EFF3118687F312889E
:10AEB000BFF36F8F6368103307D16FF08B030848BF
:10AEC000636004F12C010AF01BFF86F31188BFF3C5
:10AED0006F8F013D04F14004E6D1F8BD5C13002002
:10AEE000E80D002070B50A4C0A4E00253146204678
:10AEF00006F0AEFD0122A4F11000114601350AF062
:10AF0000E1FE042D04F14004F0D1002070BD00BF2B
:10AF10008813002029AC02000169012381F84B301D
:10AF20000B6833B191F849301BB1024808310AF07F
:10AF3000E7BE7047E80D00200169012381F84A301F
:10AF40000B6833B191F848301BB1024808310AF060
:10AF5000D7BE7047E80D002070B50569EFF3118684
:10AF6000202383F31288BFF36F8FD5F89000FEF78C
:10AF70000FF8044686F31188BFF36F8F30B1044891
:10AF80000022002305F1180106F08EFE204670BD58
:10AF9000E80D002070B5012382F8483013680D4693
:10AFA00014463BB192F84A3023B10E4802F1080131
:10AFB0000AF0A6FED4F89030DA885B899A4205D16F
:10AFC0007DB904F1180140F6CD4204E004F1180106
:10AFD000002DF8D00022BDE870400248002306F0A2
:10AFE00063BE70BDE80D002070B50E468188044632
:10AFF000C9B2154815460AF057F810B394F9002065
:10B000006378002A16DB202B04D0222B0ED06FF0A1
:10B0100085000AE02B681A6840F8102C9A8820F8FE
:10B020000C2C9B7900F80A3C002070BD638800F866
:10B03000093CF9E7212BEAD1103807232860336057
:10B04000F2E76FF01200F0E75C14002008B501464B
:10B0500003480AF037F810B1012300F8073C08BD97
:10B060005C1400200D4A03460021A0F84810106827
:10B07000C3F8940090889279A3F8980083F89A20F6
:10B0800083F89C1083F89B10A3F89E1083F8A010FF
:10B09000402203F14C000AF001BF00BF30640300FE
:10B0A00010B504690023C4F8A8300C4BC4F8A40000
:10B0B000596804F1A80269B9C3E9002204F1080043
:10B0C000074906F0C5FC04F11800064906F0C0FD6A
:10B0D000002010BD0A605A60F0E700BF5C14002039
:10B0E0001B5103009DB1020030B54FF4003342689C
:10B0F00005690D4C85B042F2A100CDE901030023A2
:10B1000085F89D30106AADF80C1000790A2201A96B
:10B1100009F0A6FF95F89D3023B901200AF051FDF2
:10B12000013CF7D105B030BDA186010073B50469BB
:10B130008DF80710002384F848302025EFF311869E
:10B1400085F31288BFF36F8F0122D4F890000DF1C0
:10B150000701FDF71DFF86F31188BFF36F8F0128EC
:10B160000AD00AF0DDFD10B994F8A1306BB9094B93
:10B170001A780AB901221A702122002304F1180159
:10B18000054806F091FD02B070BD0021212007F0B6
:10B1900067FDD3E7B4270020E80D0020F0B5D0F814
:10B1A0008C305B681B6A1F7D85B00546384609F008
:10B1B0009FFF064650BB95F886303BB3A86F01460B
:10B1C000C38831F80A2F9B1A9BB2B3F5806F28BF52
:10B1D0004FF4806303AA09F0C5FD0446B0B18306AD
:10B1E000A5F1180308BF00F1FF3485F83060019322
:10B1F000074B03990093224602233846FFF7C2FD0E
:10B20000A86F224600F10A0109F0E2FD05B0F0BD89
:10B2100095AF020037B514460A1E054621DDD4F865
:10B220008C0004F14C01FDF7B3FE012384F8493092
:10B2300023683BB194F84B3023B1114804F1080165
:10B240000AF05EFDD4F88C209388918912695B1A0C
:10B250009BB2D31A3F2B04D8012384F8A03003B04B
:10B2600030BD94F89E30002BF9D0064B009301942A
:10B270000123402204F14C012846FFF783FDEEE74D
:10B28000E80D002015B20200F7B50D4601461D4835
:10B2900009F0FEFE044610B30646691E56F8A439AE
:10B2A0005F6805291BD8DFE801F01C1A031C222661
:10B2B00010F8061C99B9012300F8063C3B6A324697
:10B2C000187BFFF7A7FF14F85C2C42B93B6A187D86
:10B2D0000D4B0093019602231146FFF753FD03B077
:10B2E000F0BD304603B0BDE8F040FFF7BBBE012320
:10B2F00004F8053CF3E710F8053C002BEFD00023E1
:10B30000F6E700BF5C14002095AF020037B5094D89
:10B310000949002400944FF0FF334FF4806228461F
:10B3200006F026FC0549284606F042FD204603B0FB
:10B3300030BD00BFE80D002080360020B27203004F
:10B3400008B5044809F067FBBDE80840024809F069
:10B3500062BB00BFBB720300F0720300014808F03B
:10B36000EBBC00BFD064030038B5044618B90F4BDE
:10B370000F485B6898476168B1F5683F10D0B1F538
:10B38000680F0DD00B4DA9420AD011F468612068F6
:10B3900007D00146084805F0B5FC0023236065602E
:10B3A00038BD14220AF07AFDF9E700BF200600201C
:10B3B0001E7303002C5F5CA96419002008B520B33C
:10B3C0004368B3F5683F10D101220368BFF35B8F78
:10B3D00053E8001F002903D143E800200028F7D1DB
:10B3E000BFF35B8F0DD1002008BD094A93420AD0FC
:10B3F00000684FF0FF324FF0FF3305F063FD002887
:10B40000F1D00448F0E70448EEE76FF4E040EBE7E2
:10B410002C5F5CA9E98FFFFFEA8FFFFF08B5D8B169
:10B420004368B3F5683F10D100220368BFF35B8F18
:10B4300053E8001F012903D143E800200028F7D179
:10B44000BFF35B8F0BD1002008BD074A934208D0A1
:10B45000006805F007FEF6E76FF4E040F4E7034804
:10B46000F2E70348F0E700BF2C5F5CA9E98FFFFF1C
:10B47000EA8FFFFF10B5044618B91D4B1D485B68E5
:10B4800098476368B3F5683F2FD0B3F5680F2CD0A9
:10B49000194A934219D1236803BB18484FF0FF3271
:10B4A0004FF0FF33214605F0A1FB08B923681BB913
:10B4B0000F4B13485B6898472068142200210AF05C
:10B4C000EDFC4FF46863636008E0B3F5683F0DD8A6
:10B4D0003A2B03D040F6BA629342DED120680AF0DC
:10B4E000D3FB636843F03A03636010BD054AF3E79A
:10B4F000200600201E7303002C5F5CA96419002045
:10B50000447303003A00003A08B506490648402350
:10B5100014220AF0A2FBBDE808400449044808F0E0
:10B520007DBC00BF6414002064190020D8640300AF
:10B53000EC6403002DE9F047064600AF0C460029F5
:10B5400036D0E9468AB0D1E90012A3686D46214899
:10B55000A8464FF0050AC5E90501C5E9072348F8E3
:10B5600010AF1D48424600234FF42151FEF7FEF86C
:10B57000CD46D4E903126369AD461848C5F810A05A
:10B58000C5E90501C5E907231348002342464FF4E6
:10B590002151FEF7EBF8CD46E369114A0E4801212F
:10B5A00009F0DCFCA3690F4A0B48012109F0D6FC25
:10B5B000012E07D1EFF305830B4A0748103B3146B4
:10B5C00009F0CCFC2146304605F010F9BD46BDE837
:10B5D000F08700BF71730300F0630300A0730300E2
:10B5E000CF730300DE7303000C74030030BFFFF75A
:10B5F000FDBF00BF2DE9F0410B4EDFF8308006EBB8
:10B600000807CC1B05463246094920460AF038FC9B
:10B61000A01942460021083C0AF040FCC5F89040C1
:10B6200007F10800BDE8F081000000000400000000
:10B6300030640300054B5A699B689A421FBF044A55
:10B64000536843F080535360704700BF6825002063
:10B6500000ED00E070B5294C06460D462848294902
:10B6600009F05FFEA36AD9043CD52548264909F0B4
:10B6700058FE1720A36A1A0504D52148234909F06A
:10B6800050FE18201D4CA36A9B0512D51C4820496A
:10B6900009F047FEA36BA26A100409D51D4A184899
:10B6A000012109F05BFC1EB1A36A23F40043A362ED
:10B6B0001920124CA36A590504D51148164909F0FE
:10B6C00030FE1A20A36ADA050ED50D48134909F099
:10B6D00028FE1B20094A936A43F47F4393620023A8
:10B6E0002B7070BD1620C5E7A36A9B04F2D50448F1
:10B6F0000B4909F016FE1C20ECE700BF00ED00E04E
:10B70000F06303001F7403003574030046740300E4
:10B71000597403007274030087740300A274030059
:10B72000BA74030010B5204C2049214809F0F9FDF6
:10B73000A36A990136D51E481E4909F0F2FD1E2064
:10B74000A36ADA0104D51A481B4909F0EAFD1F2053
:10B75000154CA36A1B0304D51548184909F0E1FDEF
:10B760002120A36A590304D51148154909F0D9FDD0
:10B7700022200D4CA36A9A0304D50D48114909F003
:10B78000D0FD2320A36ADB0304D509480E4909F044
:10B79000C8FD2420044A936A6FEA03436FEA134307
:10B7A000936210BD1D20CBE700ED00E0E9740300BB
:10B7B000F063030001750300147503002E75030088
:10B7C0004C750300717503008B7503002DE9F84378
:10B7D0003F4D804689463F483F49174609F0A1FD45
:10B7E000AB6ADA0627D53D493A4809F09AFD11249B
:10B7F000AB6A1B0704D53A49364809F092FD12247A
:10B80000334DAB6A9E0718D53649324809F089FD99
:10B810006E6BAB6A1C0646D5334A2E48334601216F
:10B8200009F09CFBB9F1000F03D0AB6A23F0800351
:10B83000AB62132403E01024DAE76FF01506244D01
:10B84000AB6AD80704D52949224809F06AFD1424B7
:10B85000AB6A990604D526491E4809F062FD1524F5
:10B860001B4DAB6ADA0602D4AB6A9B070AD56B683C
:10B87000180507D54146304600F0E0FAB0B180F334
:10B8800009880224124B9A6A920642BF5A6A22F42D
:10B8900000525A629A6A42F0FF029A6200233B7099
:10B8A0002046BDE8F8836FF01506C2E7AB6AD906FB
:10B8B000E8D51049104A11484FF4927309F0C1F8C5
:10B8C0000F4809F0BEF80C484FF4927109F0B0F837
:10B8D00000ED00E0F0630300B6750300CC750300D3
:10B8E00046740300FF750300177603002D760300EE
:10B8F000BA7403007E7603004C76030027670300CA
:10B90000C8760300F0B5794B8BB00446586800AF99
:10B91000C0F30803002686F31188BFF36F8F02F08F
:10B920007F45B5F17F4F07D102F00C05082D12D1EC
:10B930006F49704809F0F5FC6F49704A704840F251
:10B94000114309F07EF86F4809F07BF840F211418D
:10B950006A4809F06DF815074CBF0C460126002C0B
:10B96000EAD00022FA71DA1E092A00F29E80DFE88E
:10B9700002F0059497779C9C9C9C9C9A62495D4838
:10B980005A4D09F0CEFC0023FB71EB6A9A0705D5EE
:10B990005E49584809F0C5FC002329E0EB6A002BFA
:10B9A00001DA5B49F5E7EB6A5B0069D55949514813
:10B9B00009F0B7FC6B69A26943F480736B61BFF354
:10B9C0004F8FBFF36F8F6B6932F8022C23F48073B3
:10B9D0006B61BFF34F8FBFF36F8F4DF602739A42C7
:10B9E00027D123684C4A4348012109F0B7FA23685C
:10B9F000FA79DAB907F1080504F1200C20686168CA
:10BA00002A4603C2083464451546F7D17A6A002EE7
:10BA100067D0C2F3080121B96FEA52226FEA4222CD
:10BA20007A6207F108011846FFF784FD2C37BD46FE
:10BA3000F0BDAB6ADBB233B1FA1D01212046FFF73E
:10BA4000C5FE0346D4E7AB6A13F47F4F04D0F91D5B
:10BA50000120FFF7FFFDF4E7AB6AB3F5803F02D3A7
:10BA6000FFF760FEEDE72D49244A254840F2EA231E
:10BA700008F0E7FF2A4808F0E4FF40F2EA2167E710
:10BA800026491E4A1E4840F2ED2308F0DAFF2548F9
:10BA900008F0D7FF40F2ED215AE7FA1D0021CDE76B
:10BAA000F91D0020D5E7204973E7204A204910F40A
:10BAB000F87F6D468AB018BF11466A46103BD361C5
:10BAC0001C484FF4007313841B4BC2E9050142F874
:10BAD000103F084800234FF41151FDF747FEAD46D3
:10BAE0005AE722F4FF7222F0010299E700ED00E02C
:10BAF00019770300F0630300447703004C760300DA
:10BB0000276703005777030095770300AC7703009E
:10BB1000CD770300DB770300FA770300AA900300D8
:10BB2000167803003A7803006A7803000077030070
:10BB3000EB7603008E78030004000001044B5A6981
:10BB400042F010025A615A6922F008025A617047A5
:10BB500000ED00E0EFF30880EFF3098101B57246D4
:10BB6000FFF7D0FE01BD00BF002080F31488BFF3B3
:10BB70006F8F0F4880F3088803F0D0FC00200D4938
:10BB80000860BFF34F8F00F02BF8202080F311885E
:10BB900009484FF40461401880F30988EFF31480DA
:10BBA0000221084380F31488BFF36F8F00F016F969
:10BBB000C050002094ED00E0003F00200749D1F87C
:10BBC00090200023C2F307221846934200DB7047FF
:10BBD000C1F89830C1F8A0000133F6E700ED00E0AD
:10BBE00008B572B6002383F31388FFF7E7FF144B01
:10BBF0004FF0FF32C3F88020C3F88420C3F88820B8
:10BC0000C3F88C20C3F89020C3F89420C3F8982080
:10BC1000C3F89C20C3F88021C3F88421C3F888218D
:10BC2000C3F88C21C3F89021C3F89421C3F898215C
:10BC3000C3F89C2162B6BFF34F8FBFF36F8F08BD6F
:10BC400000E100E0084B9B6883420BD1EFF30583D2
:10BC500043B1064B5A6842F080525A605A6A22F445
:10BC600000425A6207F0BCB86825002000ED00E0F1
:10BC700015498A684FF030001044EFF3098C80E8D2
:10BC8000F01F202080F31288BFF36F8F0F4F4FF00B
:10BC900000664A698A603E60D2F890000C4C2060D1
:10BCA000D2F894000023C2F8943080F3118804B5D0
:10BCB000104600F02BF9BDE8044002F1300090E896
:10BCC000F01F8CF3098870476825002004ED00E020
:10BCD000841900201EF0040F0CBFEFF30880EFF36F
:10BCE0000980816911F8021C0229FFD001B5724652
:10BCF00009F00CFB01BD00BF40B2002807DB044A7D
:10BD00004109012300F01F00834042F821307047B1
:10BD100000E100E040B200280CDB4309064900F0D6
:10BD20001F0020330122824041F82320BFF34F8FB0
:10BD3000BFF36F8F704700BF00E100E0054B420981
:10BD400000F01F0053F82220012303FA00F01040F6
:10BD5000704700BF00E100E038B54B1C072B0446DC
:10BD60000D460FD9114A124912486B2308F069FE9B
:10BD7000114829460723224608F063FE0B486B2131
:10BD800008F056FE40B20028ACBF00F160400B4AFC
:10BD90004FEA4313B8BF00F00F00DBB2AABF00F5B3
:10BDA0006140135480F8003338BD00BFA178030010
:10BDB000D878030027670300F378030014ED00E050
:10BDC000044B054A23F07F039360BFF34F8FBFF30B
:10BDD0006F8F70470070020000ED00E008B5FFF7BC
:10BDE000EFFF074AD2F8883023F47003C2F8883096
:10BDF00004F022FE07F08CFA00F05EF804F064FE16
:10BE000000ED00E042F8203C009B42F81C3C0A494F
:10BE1000019B42F8183C029B42F8143C21F00101BE
:10BE20004FF0807342F8043C42F8081C0023203A8B
:10BE30000265C0F894307047D18202000A4A034676
:10BE4000906878B113F1160FD0F8800005D0A0F1FA
:10BE500040029A4205D8834203D2814228BF002083
:10BE600070470020704700BF6825002008B51546C0
:10BE70000A4A0B4B9060D0F890201A600E4600F0F2
:10BE800045F82C4686F309880020064B9847204643
:10BE9000002100220023044C204700BF6825002019
:10BEA0008419002033530300D1820200014B102279
:10BEB0001A61704700ED00E0044800232021C218F9
:10BEC0000133302B82F80013F9D1704700E100E014
:10BED00008B5EFF30583064A103B02EBC30152F8A5
:10BEE000330049688847BDE80840FFF7A3BB00BF9F
:10BEF000E8600300024B034A0348012100F08CB8BC
:10BF00000000042000000020FC640300D0F8802022
:10BF1000054B403A1A60054A4021C3E90112184610
:10BF2000012100F09FB800BF8819002000000B1508
:10BF300008B503461048D0F89020C2F30722013A12
:10BF4000934207D90D480E4A012109F007F86FF016
:10BF5000150008BDC0F898300A6822F01F021A4385
:10BF600042F01002C0F89C208A6842F00102C0F83A
:10BF7000A0201846EDE700BF00ED00E0E0630300FD
:10BF800037790300F0B50E4685B01F4604460025FC
:10BF9000B5420DDA606810B397B1431E18420AD05B
:10BFA000104A11482B46012108F0D8FF6FF0150206
:10BFB000104605B0F0BD1F28F2D921680B42EFD121
:10BFC0002368019309F0D8F9A36801A90343D0B20B
:10BFD0000393FFF7ADFF10F1160FE7D0421C0135B8
:10BFE0000C34D5E75D790300E0630300044B0522C0
:10BFF000C3F89420BFF34F8FBFF36F8F704700BF1C
:10C0000000ED00E0BFF35F8F024B0022C3F89420E5
:10C01000704700BF00ED00E038B50D4D01232A78D0
:10C020000C46FFF7AFFF287016300FD1094A0A49B6
:10C030000A484FF4BB7308F004FD0948214608F094
:10C0400000FD04484FF4BB7108F0F2FC38BD00BF9E
:10C05000B527002080790300AA900300276703001A
:10C06000AF79030010B5144A002312780C46FFF78D
:10C0700089FF10F1160F08D0104A0021D2F8903035
:10C08000C3F30723984210DB10BD0D4A0D490E483B
:10C0900040F2951308F0D5FC0C48214608F0D1FC7D
:10C0A000074840F2951108F0C3FCC2F89800C2F8A6
:10C0B000A0100130E2E700BFB527002000ED00E04E
:10C0C00080790300AA90030027670300DB7903004F
:10C0D0002DE9F04F7B4C7C49D4F890300D68C3F3C8
:10C0E00007239D4285B013D9784A7949794840F2AF
:10C0F000AD1308F0A6FCD4F8902077482946C2F387
:10C10000072208F09EFC40F2AD11704808F090FC48
:10C11000FFF778FF49680022954201F10C012DD10B
:10C120006E4C6F4F25706846FDF7E8FEDFF8B4816E
:10C13000DFF8B49106460025AE4232D1237861493A
:10C140000020D1F89020C2F307229342C0F2AF80C2
:10C15000FFF74CFFD1F89030C3F30723082B00F012
:10C16000AC806249594A5B4840F21F2308F069FCE1
:10C170005F4808F066FC40F21F21C6E7C4F898202B
:10C1800051F80C3C23F01F03134343F01003C4F891
:10C190009C3051F8043C43F00103C4F8A030013254
:10C1A000BAE7009A02EB05132901D3F80CA00AEABA
:10C1B0000700B0F5000F60D00AD8B0F5001F38D0E6
:10C1C000B0F5800F4ED0B0F5801F12D00135B3E727
:10C1D000B0F1807F5CD0B0F1007FF7D19868D3F8E0
:10C1E00004A0525809F0C8F8CDE901A240F480201B
:10C1F0000BE09868D3F804A0525809F0BDF8CDE9D7
:10C2000001A240F0885040F430200390207801A92A
:10C21000FFF78EFE002846DA2D492C4A2D4840F2C1
:10C22000D71308F00EFC334808F00BFC40F2D7118E
:10C230006BE79868D3F804B0525809F09DF81AF0EB
:10C24000010F40EA0800CDE901B20390DED02A498F
:10C250001E4A20487B2308F0F4FB284808F0F1FB35
:10C260007B2152E79868D3F804A0525809F084F86B
:10C27000CDE901A240EA0900C7E79868D3F804A015
:10C28000525809F079F8CDE901A240F08270BCE77C
:10C290009868D3F804A0525809F06EF8CDE901A2CD
:10C2A00040F08870B1E72378013323708EE7C1F83E
:10C2B0009830C1F8A000013343E7002005B0BDE885
:10C2C000F08F00BF00ED00E00865030080790300F7
:10C2D000AA90030027670300087A0300B52700200F
:10C2E0000000F0FF0000081100000206BB7A030006
:10C2F0000B7B0300917A03003C7A0300627A03000F
:10C30000F0B587B007460E46144600211022684655
:10C310001D4609F0C3FD02238DF802302A46054B65
:10C32000019321466846CDE9047607F0D9FE07B0AF
:10C33000F0BD00BF9953030008B5024B1B68984736
:10C34000002008BD94190020034B044A186093781C
:10C3500043F002039370704794190020D805002021
:10C3600008B50649064821F00701C1F1005202F55F
:10C370008022FBF7B7FA002008BD00BFCF5F002086
:10C38000981900200E4A0123C2F840354FF0804230
:10C390004FF08051C2F87835D1F83001082808D123
:10C3A000D1F83411052904D80648415C09B1C2F816
:10C3B00038364FF080430122C3F8802500207047B3
:10C3C00000E001403B7B030020B1034B800143F0C0
:10C3D00001031847704700BF40640300BFF34F8F4D
:10C3E0000549064BCA6802F4E0621343CB60BFF311
:10C3F0004F8F00BFFDE700BF00ED00E00400FA052D
:10C40000020600F07F0312D5082B05D1010700F0CA
:10C410000F0306D50E48704710F0780F12D100F0C8
:10C420000F034C2000EB43100A4B18447047082BB5
:10C4300005D1020700F00F0306D50748704710F03A
:10C44000780FF6D000207047044800EB4310704787
:10C45000F01A0020A4190020101C0020101B00203E
:10C460000149024809F04CBCCC190020A80E00205C
:10C470000146014809F01BBC84070020094C0A4A08
:10C480000A4808B5012108F0A5FF094909484FF4F9
:10C49000E373224608F0D5FA4FF4E371204608F022
:10C4A000C7FA00BF617B0300457B030018640300EB
:10C4B000AA9003002767030010B51049BFF35B8FF4
:10C4C000002351E8002F012A03D141E80030002861
:10C4D000F7D1BFF35B8F0CBF012018460DD151F887
:10C4E000044C14392046FCF7C9FC10F1780F04D134
:10C4F0002046BDE81040FCF755BC10BDC419002013
:10C5000002480022002304F05BBF00BF8407002024
:10C5100013B5124801F01EF9114B98421AD1114877
:10C5200003F040FF0024104803F092FF0F49104829
:10C5300000944FF0FF334FF4806205F019FB0D4972
:10C540000B4805F035FC0C480C4905F081FA2046F3
:10C5500002B010BD6FF00400FAE700BFF1CB02009B
:10C560000000AD0B467E030028650300C03A0020A2
:10C57000A80E0020957B0300CC190020EDC6020018
:10C5800038B5002464F07F00C0B2FFF739FF58B916
:10C590001C491D4A1D4840F27A2308F052FA40F225
:10C5A0007A21194808F044FA013408F000FF082CF9
:10C5B000E8D1174D0024E0B2FFF722FF48B9114936
:10C5C000114A12484FF4207308F03BFA4FF42071DF
:10C5D000E7E7036903B90561013408F0E8FE082CB8
:10C5E00005F14005E7D10B4808F0E1FE0A4BD3F80E
:10C5F0007C2212B9094AC3F87C22094808F0D7FE08
:10C60000002038BDA07B0300617B03002767030087
:10C6100034200020F01A0020A4190020341C00202F
:10C62000101C002010B5054CFFF76AFF20B14168CF
:10C63000204604F067FBF7E710BD00BFD0060020DE
:10C6400013B500221248002301A904F0CFFAD8B193
:10C65000104A1148012108F0BDFEFFF7E3FF0C4826
:10C660000022002301A904F0C1FA044608B1FFF733
:10C6700005FF0198042340600374FFF7F9FEFFF7FC
:10C68000EFFE204602B010BD01984060FAE700BFFF
:10C69000D0060020A77B0300186403000346024A6B
:10C6A0000248012108F05ABCC57B0300186403004E
:10C6B000022810B511D80B4A145CFFF7C1FF80B1F6
:10C6C000002202740472FFF7D3FE074B93F8243064
:10C6D0003BB1BDE81040FFF7C3BEBDE81040FFF717
:10C6E000DDBF10BD437E0300A41900202DE9F043F7
:10C6F000954DDFF8589285B08046FFF701FF074659
:10C7000010B905B0BDE8F08395F825203B7C3AB917
:10C71000002B00F0B68079688C4804F0F3FAECE75F
:10C72000042B00F2E281DFE813F0AC0005007C018D
:10C730009201B30118F8043C33B9BB685B7A844AB0
:10C740008448012108F00AFCBC685CB98249834A2C
:10C7500083484FF44B7308F074F94FF44B717F48E2
:10C7600008F066F93B7B032B46D8DFE803F0024C68
:10C770007277A27A62B17B49784A79484FF439736B
:10C7800008F05FF9784808F05CF94FF43971E6E792
:10C790006669764B32607260D3F880143170D3F8DA
:10C7A00084147170D3F88814D3F88C0441EA002102
:10C7B0007180D3F89014D3F8940441EA0021B18039
:10C7C000D3F89814D3F89C3441EA0323F380082368
:10C7D000E36030687168664B03C311462368607A72
:10C7E000984796F90030002B09DBF3889AB232B1F2
:10C7F000A5F88C3201F014FC796848468DE70023D7
:10C80000A5F88C32F8E7637F002BF5D0237F002B4F
:10C81000F2D000264FF0FF32564866774FF0FF33D4
:10C82000267708F0D9FD636901936368CDE9023684
:10C8300001A9607A01F00AF84F4A9042034604D0F9
:10C840004E4A4448012108F089FB4A4808F0C6FDD9
:10C85000D2E723680121607A9847CDE7A37A6BB9C4
:10C86000E37F5BB943484FF0FF324FF0FF3308F0EE
:10C87000B3FD01F0DBFB3F4808F0B0FD2368022167
:10C88000E9E73B7A042BB7D8DFE803F09B032EB52A
:10C89000C10000F0CFFE04460028ADD100F0CCFD71
:10C8A000BFF35B8F3649012351E8002F002A03D1E3
:10C8B00041E800300028F7D1BFF35B8F9CD141F8ED
:10C8C000084C41F8104CE8696B611439FCF7D2F957
:10C8D000002891DA2B49214A214840F2AA2308F086
:10C8E000B0F840F2AA213AE7002464F07F00C0B219
:10C8F000FFF786FD48B91849184A194840F2312314
:10C9000008F09FF840F2312129E7037A13B1407A09
:10C9100001F04CFD0134082CE7D195F854311BB1DE
:10C9200095F8550101F042FD0024E0B2FFF768FDE3
:10C9300050BB0949094A0A4840F2432308F081F8EC
:10C9400040F243210BE700BFA4190020D0060020CD
:10C95000E07B030018640300A07B0300617B0300FD
:10C9600027670300067C03002C7C03000070024054
:10C97000A8190020DC1900200000AD0B487C030042
:10C98000C4190020E2700300037A13B1407A01F069
:10C990000DFD0134082CC8D195F874321BB195F8FF
:10C9A000750201F003FD002000F010FE012385F860
:10C9B00025302B68002B3FF41FAF00210220984741
:10C9C0001AE7002485F8254001F030FCFFF774FDDC
:10C9D000A04209DA4849494A494840F2C22308F0CE
:10C9E00030F840F2C221BAE62B68002B3FF404AFC6
:10C9F00021460420E3E7002A3FF4FEAE00F024FEC7
:10CA00002B68002B3FF4F8AE00210520D7E72B68F8
:10CA1000002B3FF4F1AE002A3FF4EEAE00210620D9
:10CA2000CDE708F110044FF0FF334FF0FF322046FE
:10CA300008F0D2FCFFF7A4FD204608F0CFFC58F820
:10CA4000283C002B3FF4D8AE00210120B7E795F831
:10CA5000743263B1012485F8894285F88842FFF772
:10CA6000EFFD60B9274A2848214608F0B3FC58F882
:10CA7000283C002B3FF4C0AE00210A209FE7234A48
:10CA8000047404738260FFF7F3FCFFF7E9FCEEE740
:10CA90001F4A1D48012108F09DFC09F024F801F00F
:10CAA000C5FB00F0A9FCFFF7BDFDFFF769FD48B12C
:10CAB0001849124A124840F2864307F0C2FF40F27A
:10CAC00086414CE609F008F8134800F043FE134B8A
:10CAD00098423FF491AE1249084A094840F28D430A
